{"contracts/GameLogic.sol":{"GameLogic":{"abi":[{"inputs":[{"internalType":"address","name":"_goldTokenAddress","type":"address"},{"internalType":"address","name":"_gameAssetNFTAddress","type":"address"}],"stateMutability":"nonpayable","type":"constructor"},{"inputs":[{"internalType":"address","name":"owner","type":"address"}],"name":"OwnableInvalidOwner","type":"error"},{"inputs":[{"internalType":"address","name":"account","type":"address"}],"name":"OwnableUnauthorizedAccount","type":"error"},{"anonymous":false,"inputs":[{"indexed":true,"internalType":"address","name":"previousOwner","type":"address"},{"indexed":true,"internalType":"address","name":"newOwner","type":"address"}],"name":"OwnershipTransferred","type":"event"},{"inputs":[],"name":"ENERGY_PER_MINE","outputs":[{"internalType":"uint256","name":"","type":"uint256"}],"stateMutability":"view","type":"function"},{"inputs":[],"name":"ENERGY_REGEN_RATE_PER_MINUTE","outputs":[{"internalType":"uint256","name":"","type":"uint256"}],"stateMutability":"view","type":"function"},{"inputs":[],"name":"MAX_ENERGY","outputs":[{"internalType":"uint256","name":"","type":"uint256"}],"stateMutability":"view","type":"function"},{"inputs":[],"name":"gameAssetNFT","outputs":[{"internalType":"contract GameAssetNFT","name":"","type":"address"}],"stateMutability":"view","type":"function"},{"inputs":[{"internalType":"address","name":"player","type":"address"}],"name":"getPlayerEnergy","outputs":[{"internalType":"uint256","name":"","type":"uint256"}],"stateMutability":"view","type":"function"},{"inputs":[],"name":"goldToken","outputs":[{"internalType":"contract GoldToken","name":"","type":"address"}],"stateMutability":"view","type":"function"},{"inputs":[{"internalType":"address","name":"player","type":"address"}],"name":"initializePlayerEnergy","outputs":[],"stateMutability":"nonpayable","type":"function"},{"inputs":[{"internalType":"address","name":"","type":"address"}],"name":"lastEnergyUpdateTime","outputs":[{"internalType":"uint256","name":"","type":"uint256"}],"stateMutability":"view","type":"function"},{"inputs":[],"name":"mine","outputs":[],"stateMutability":"nonpayable","type":"function"},{"inputs":[],"name":"miningRewardAmount","outputs":[{"internalType":"uint256","name":"","type":"uint256"}],"stateMutability":"view","type":"function"},{"inputs":[],"name":"nftDropProbability","outputs":[{"internalType":"uint256","name":"","type":"uint256"}],"stateMutability":"view","type":"function"},{"inputs":[],"name":"owner","outputs":[{"internalType":"address","name":"","type":"address"}],"stateMutability":"view","type":"function"},{"inputs":[{"internalType":"address","name":"","type":"address"}],"name":"playerEnergy","outputs":[{"internalType":"uint256","name":"","type":"uint256"}],"stateMutability":"view","type":"function"},{"inputs":[],"name":"renounceOwnership","outputs":[],"stateMutability":"nonpayable","type":"function"},{"inputs":[{"internalType":"string[]","name":"_uris","type":"string[]"}],"name":"setArtifactUris","outputs":[],"stateMutability":"nonpayable","type":"function"},{"inputs":[{"internalType":"uint256","name":"_amount","type":"uint256"}],"name":"setMiningRewardAmount","outputs":[],"stateMutability":"nonpayable","type":"function"},{"inputs":[{"internalType":"uint256","name":"_probability","type":"uint256"}],"name":"setNftDropProbability","outputs":[],"stateMutability":"nonpayable","type":"function"},{"inputs":[{"internalType":"address","name":"newOwner","type":"address"}],"name":"transferOwnership","outputs":[],"stateMutability":"nonpayable","type":"function"}],"evm":{"bytecode":{"linkReferences":{},"object":"608060405267016345785d8a0000600355606460045560405180606001604052806040518060600160405280603e8152602001620021eb603e913981526020016040518060600160405280603f815260200162002229603f91398152602001604051806060016040528060288152602001620022686028913981525060079060036200008d929190620003b9565b503480156200009b57600080fd5b5060405162002290380380620022908339818101604052810190620000c1919062000510565b33600073ffffffffffffffffffffffffffffffffffffffff168173ffffffffffffffffffffffffffffffffffffffff1603620001375760006040517f1e4fbdf70000000000000000000000000000000000000000000000000000000081526004016200012e919062000568565b60405180910390fd5b6200014881620002f560201b60201c565b5081600160006101000a81548173ffffffffffffffffffffffffffffffffffffffff021916908373ffffffffffffffffffffffffffffffffffffffff16021790555080600260006101000a81548173ffffffffffffffffffffffffffffffffffffffff021916908373ffffffffffffffffffffffffffffffffffffffff160217905550600160009054906101000a900473ffffffffffffffffffffffffffffffffffffffff1673ffffffffffffffffffffffffffffffffffffffff1663f2fde38b306040518263ffffffff1660e01b815260040162000228919062000568565b600060405180830381600087803b1580156200024357600080fd5b505af115801562000258573d6000803e3d6000fd5b50505050600260009054906101000a900473ffffffffffffffffffffffffffffffffffffffff1673ffffffffffffffffffffffffffffffffffffffff1663a843c51f306040518263ffffffff1660e01b8152600401620002b9919062000568565b600060405180830381600087803b158015620002d457600080fd5b505af1158015620002e9573d6000803e3d6000fd5b505050505050620008e6565b60008060009054906101000a900473ffffffffffffffffffffffffffffffffffffffff169050816000806101000a81548173ffffffffffffffffffffffffffffffffffffffff021916908373ffffffffffffffffffffffffffffffffffffffff1602179055508173ffffffffffffffffffffffffffffffffffffffff168173ffffffffffffffffffffffffffffffffffffffff167f8be0079c531659141344cd1fd0a4f28419497f9722a3daafe3b4186f6b6457e060405160405180910390a35050565b82805482825590600052602060002090810192821562000406579160200282015b8281111562000405578251829081620003f49190620007ff565b5091602001919060010190620003da565b5b50905062000415919062000419565b5090565b5b808211156200043d576000818162000433919062000441565b506001016200041a565b5090565b5080546200044f90620005ee565b6000825580601f1062000463575062000484565b601f01602090049060005260206000209081019062000483919062000487565b5b50565b5b80821115620004a257600081600090555060010162000488565b5090565b600080fd5b600073ffffffffffffffffffffffffffffffffffffffff82169050919050565b6000620004d882620004ab565b9050919050565b620004ea81620004cb565b8114620004f657600080fd5b50565b6000815190506200050a81620004df565b92915050565b600080604083850312156200052a5762000529620004a6565b5b60006200053a85828601620004f9565b92505060206200054d85828601620004f9565b9150509250929050565b6200056281620004cb565b82525050565b60006020820190506200057f600083018462000557565b92915050565b600081519050919050565b7f4e487b7100000000000000000000000000000000000000000000000000000000600052604160045260246000fd5b7f4e487b7100000000000000000000000000000000000000000000000000000000600052602260045260246000fd5b600060028204905060018216806200060757607f821691505b6020821081036200061d576200061c620005bf565b5b50919050565b60008190508160005260206000209050919050565b60006020601f8301049050919050565b600082821b905092915050565b600060088302620006877fffffffffffffffffffffffffffffffffffffffffffffffffffffffffffffffff8262000648565b62000693868362000648565b95508019841693508086168417925050509392505050565b6000819050919050565b6000819050919050565b6000620006e0620006da620006d484620006ab565b620006b5565b620006ab565b9050919050565b6000819050919050565b620006fc83620006bf565b620007146200070b82620006e7565b84845462000655565b825550505050565b600090565b6200072b6200071c565b62000738818484620006f1565b505050565b5b8181101562000760576200075460008262000721565b6001810190506200073e565b5050565b601f821115620007af57620007798162000623565b620007848462000638565b8101602085101562000794578190505b620007ac620007a38562000638565b8301826200073d565b50505b505050565b600082821c905092915050565b6000620007d460001984600802620007b4565b1980831691505092915050565b6000620007ef8383620007c1565b9150826002028217905092915050565b6200080a8262000585565b67ffffffffffffffff81111562000826576200082562000590565b5b620008328254620005ee565b6200083f82828562000764565b600060209050601f83116001811462000877576000841562000862578287015190505b6200086e8582620007e1565b865550620008de565b601f198416620008878662000623565b60005b82811015620008b1578489015182556001820191506020850194506020810190506200088a565b86831015620008d15784890151620008cd601f891682620007c1565b8355505b6001600288020188555050505b505050505050565b6118f580620008f66000396000f3fe608060405234801561001057600080fd5b50600436106101165760003560e01c80638da5cb5b116100a25780639f393a67116100715780639f393a67146102ab578063b94db334146102c9578063e410261d146102e5578063f2fde38b14610301578063fb30fa7f1461031d57610116565b80638da5cb5b1461024757806394002b571461026557806399f4b251146102835780639d6007521461028d57610116565b80633de3ebf8116100e95780633de3ebf8146101a35780636f354be6146101d3578063715018a614610203578063838be6c51461020d5780638495ef011461022b57610116565b806315ecd3dd1461011b5780631fdebc441461013757806323226aa0146101555780632f8a261d14610173575b600080fd5b61013560048036038101906101309190610d7e565b61033b565b005b61013f61034d565b60405161014c9190610dba565b60405180910390f35b61015d610352565b60405161016a9190610dba565b60405180910390f35b61018d60048036038101906101889190610e33565b610357565b60405161019a9190610dba565b60405180910390f35b6101bd60048036038101906101b89190610e33565b61036f565b6040516101ca9190610dba565b60405180910390f35b6101ed60048036038101906101e89190610e33565b61043a565b6040516101fa9190610dba565b60405180910390f35b61020b610452565b005b610215610466565b6040516102229190610ebf565b60405180910390f35b61024560048036038101906102409190611106565b61048c565b005b61024f6104ae565b60405161025c919061115e565b60405180910390f35b61026d6104d7565b60405161027a919061119a565b60405180910390f35b61028b6104fd565b005b6102956107f1565b6040516102a29190610dba565b60405180910390f35b6102b36107f7565b6040516102c09190610dba565b60405180910390f35b6102e360048036038101906102de9190610d7e565b6107fc565b005b6102ff60048036038101906102fa9190610e33565b610853565b005b61031b60048036038101906103169190610e33565b6108e7565b005b61032561096d565b6040516103329190610dba565b60405180910390f35b610343610973565b8060038190555050565b606481565b600a81565b60066020528060005260406000206000915090505481565b600080600660008473ffffffffffffffffffffffffffffffffffffffff1673ffffffffffffffffffffffffffffffffffffffff16815260200190815260200160002054426103bd91906111e4565b905060006001603c836103d09190611247565b6103da9190611278565b905061043181600560008773ffffffffffffffffffffffffffffffffffffffff1673ffffffffffffffffffffffffffffffffffffffff1681526020019081526020016000205461042a91906112ba565b60646109fa565b92505050919050565b60056020528060005260406000206000915090505481565b61045a610973565b6104646000610a11565b565b600260009054906101000a900473ffffffffffffffffffffffffffffffffffffffff1681565b610494610973565b80600790805190602001906104aa929190610c5a565b5050565b60008060009054906101000a900473ffffffffffffffffffffffffffffffffffffffff16905090565b600160009054906101000a900473ffffffffffffffffffffffffffffffffffffffff1681565b61050633610ad5565b600a600560003373ffffffffffffffffffffffffffffffffffffffff1673ffffffffffffffffffffffffffffffffffffffff168152602001908152602001600020541015610589576040517f08c379a00000000000000000000000000000000000000000000000000000000081526004016105809061134b565b60405180910390fd5b600a600560003373ffffffffffffffffffffffffffffffffffffffff1673ffffffffffffffffffffffffffffffffffffffff16815260200190815260200160002060008282546105d991906111e4565b9250508190555042600660003373ffffffffffffffffffffffffffffffffffffffff1673ffffffffffffffffffffffffffffffffffffffff16815260200190815260200160002081905550600160009054906101000a900473ffffffffffffffffffffffffffffffffffffffff1673ffffffffffffffffffffffffffffffffffffffff166340c10f19336003546040518363ffffffff1660e01b815260040161068392919061136b565b600060405180830381600087803b15801561069d57600080fd5b505af11580156106b1573d6000803e3d6000fd5b5050505060006127104233446040516020016106cf939291906113fd565b6040516020818303038152906040528051906020012060001c6106f2919061143a565b90506004548110156107ee57600060078054905042334360405160200161071b939291906113fd565b6040516020818303038152906040528051906020012060001c61073e919061143a565b9050600260009054906101000a900473ffffffffffffffffffffffffffffffffffffffff1673ffffffffffffffffffffffffffffffffffffffff1663d0def52133600784815481106107935761079261146b565b5b906000526020600020016040518363ffffffff1660e01b81526004016107ba929190611593565b600060405180830381600087803b1580156107d457600080fd5b505af11580156107e8573d6000803e3d6000fd5b50505050505b50565b60035481565b600181565b610804610973565b612710811115610849576040517f08c379a000000000000000000000000000000000000000000000000000000000815260040161084090611635565b60405180910390fd5b8060048190555050565b61085b610973565b6064600560008373ffffffffffffffffffffffffffffffffffffffff1673ffffffffffffffffffffffffffffffffffffffff1681526020019081526020016000208190555042600660008373ffffffffffffffffffffffffffffffffffffffff1673ffffffffffffffffffffffffffffffffffffffff1681526020019081526020016000208190555050565b6108ef610973565b600073ffffffffffffffffffffffffffffffffffffffff168173ffffffffffffffffffffffffffffffffffffffff16036109615760006040517f1e4fbdf7000000000000000000000000000000000000000000000000000000008152600401610958919061115e565b60405180910390fd5b61096a81610a11565b50565b60045481565b61097b610c2c565b73ffffffffffffffffffffffffffffffffffffffff166109996104ae565b73ffffffffffffffffffffffffffffffffffffffff16146109f8576109bc610c2c565b6040517f118cdaa70000000000000000000000000000000000000000000000000000000081526004016109ef919061115e565b60405180910390fd5b565b6000610a098284108484610c34565b905092915050565b60008060009054906101000a900473ffffffffffffffffffffffffffffffffffffffff169050816000806101000a81548173ffffffffffffffffffffffffffffffffffffffff021916908373ffffffffffffffffffffffffffffffffffffffff1602179055508173ffffffffffffffffffffffffffffffffffffffff168173ffffffffffffffffffffffffffffffffffffffff167f8be0079c531659141344cd1fd0a4f28419497f9722a3daafe3b4186f6b6457e060405160405180910390a35050565b6000600660008373ffffffffffffffffffffffffffffffffffffffff1673ffffffffffffffffffffffffffffffffffffffff1681526020019081526020016000205442610b2291906111e4565b90506000811115610c285760006001603c83610b3e9190611247565b610b489190611278565b9050610b9f81600560008673ffffffffffffffffffffffffffffffffffffffff1673ffffffffffffffffffffffffffffffffffffffff16815260200190815260200160002054610b9891906112ba565b60646109fa565b600560008573ffffffffffffffffffffffffffffffffffffffff1673ffffffffffffffffffffffffffffffffffffffff1681526020019081526020016000208190555042600660008573ffffffffffffffffffffffffffffffffffffffff1673ffffffffffffffffffffffffffffffffffffffff16815260200190815260200160002081905550505b5050565b600033905090565b6000610c3f84610c4e565b82841802821890509392505050565b60008115159050919050565b828054828255906000526020600020908101928215610ca2579160200282015b82811115610ca1578251829081610c9191906117ed565b5091602001919060010190610c7a565b5b509050610caf9190610cb3565b5090565b5b80821115610cd35760008181610cca9190610cd7565b50600101610cb4565b5090565b508054610ce3906114c9565b6000825580601f10610cf55750610d14565b601f016020900490600052602060002090810190610d139190610d17565b5b50565b5b80821115610d30576000816000905550600101610d18565b5090565b6000604051905090565b600080fd5b600080fd5b6000819050919050565b610d5b81610d48565b8114610d6657600080fd5b50565b600081359050610d7881610d52565b92915050565b600060208284031215610d9457610d93610d3e565b5b6000610da284828501610d69565b91505092915050565b610db481610d48565b82525050565b6000602082019050610dcf6000830184610dab565b92915050565b600073ffffffffffffffffffffffffffffffffffffffff82169050919050565b6000610e0082610dd5565b9050919050565b610e1081610df5565b8114610e1b57600080fd5b50565b600081359050610e2d81610e07565b92915050565b600060208284031215610e4957610e48610d3e565b5b6000610e5784828501610e1e565b91505092915050565b6000819050919050565b6000610e85610e80610e7b84610dd5565b610e60565b610dd5565b9050919050565b6000610e9782610e6a565b9050919050565b6000610ea982610e8c565b9050919050565b610eb981610e9e565b82525050565b6000602082019050610ed46000830184610eb0565b92915050565b600080fd5b6000601f19601f8301169050919050565b7f4e487b7100000000000000000000000000000000000000000000000000000000600052604160045260246000fd5b610f2882610edf565b810181811067ffffffffffffffff82111715610f4757610f46610ef0565b5b80604052505050565b6000610f5a610d34565b9050610f668282610f1f565b919050565b600067ffffffffffffffff821115610f8657610f85610ef0565b5b602082029050602081019050919050565b600080fd5b600080fd5b600067ffffffffffffffff821115610fbc57610fbb610ef0565b5b610fc582610edf565b9050602081019050919050565b82818337600083830152505050565b6000610ff4610fef84610fa1565b610f50565b9050828152602081018484840111156110105761100f610f9c565b5b61101b848285610fd2565b509392505050565b600082601f83011261103857611037610eda565b5b8135611048848260208601610fe1565b91505092915050565b600061106461105f84610f6b565b610f50565b9050808382526020820190506020840283018581111561108757611086610f97565b5b835b818110156110ce57803567ffffffffffffffff8111156110ac576110ab610eda565b5b8086016110b98982611023565b85526020850194505050602081019050611089565b5050509392505050565b600082601f8301126110ed576110ec610eda565b5b81356110fd848260208601611051565b91505092915050565b60006020828403121561111c5761111b610d3e565b5b600082013567ffffffffffffffff81111561113a57611139610d43565b5b611146848285016110d8565b91505092915050565b61115881610df5565b82525050565b6000602082019050611173600083018461114f565b92915050565b600061118482610e8c565b9050919050565b61119481611179565b82525050565b60006020820190506111af600083018461118b565b92915050565b7f4e487b7100000000000000000000000000000000000000000000000000000000600052601160045260246000fd5b60006111ef82610d48565b91506111fa83610d48565b9250828203905081811115611212576112116111b5565b5b92915050565b7f4e487b7100000000000000000000000000000000000000000000000000000000600052601260045260246000fd5b600061125282610d48565b915061125d83610d48565b92508261126d5761126c611218565b5b828204905092915050565b600061128382610d48565b915061128e83610d48565b925082820261129c81610d48565b915082820484148315176112b3576112b26111b5565b5b5092915050565b60006112c582610d48565b91506112d083610d48565b92508282019050808211156112e8576112e76111b5565b5b92915050565b600082825260208201905092915050565b7f4e6f7420656e6f75676820656e6572677920746f206d696e652e000000000000600082015250565b6000611335601a836112ee565b9150611340826112ff565b602082019050919050565b6000602082019050818103600083015261136481611328565b9050919050565b6000604082019050611380600083018561114f565b61138d6020830184610dab565b9392505050565b6000819050919050565b6113af6113aa82610d48565b611394565b82525050565b60008160601b9050919050565b60006113cd826113b5565b9050919050565b60006113df826113c2565b9050919050565b6113f76113f282610df5565b6113d4565b82525050565b6000611409828661139e565b60208201915061141982856113e6565b601482019150611429828461139e565b602082019150819050949350505050565b600061144582610d48565b915061145083610d48565b9250826114605761145f611218565b5b828206905092915050565b7f4e487b7100000000000000000000000000000000000000000000000000000000600052603260045260246000fd5b7f4e487b7100000000000000000000000000000000000000000000000000000000600052602260045260246000fd5b600060028204905060018216806114e157607f821691505b6020821081036114f4576114f361149a565b5b50919050565b60008190508160005260206000209050919050565b6000815461151c816114c9565b61152681866112ee565b9450600182166000811461154157600181146115575761158a565b60ff19831686528115156020028601935061158a565b611560856114fa565b60005b8381101561158257815481890152600182019150602081019050611563565b808801955050505b50505092915050565b60006040820190506115a8600083018561114f565b81810360208301526115ba818461150f565b90509392505050565b7f50726f626162696c6974792063616e6e6f74206578636565642031303030302060008201527f2831303025290000000000000000000000000000000000000000000000000000602082015250565b600061161f6026836112ee565b915061162a826115c3565b604082019050919050565b6000602082019050818103600083015261164e81611612565b9050919050565b600081519050919050565b60006020601f8301049050919050565b600082821b905092915050565b6000600883026116ad7fffffffffffffffffffffffffffffffffffffffffffffffffffffffffffffffff82611670565b6116b78683611670565b95508019841693508086168417925050509392505050565b60006116ea6116e56116e084610d48565b610e60565b610d48565b9050919050565b6000819050919050565b611704836116cf565b611718611710826116f1565b84845461167d565b825550505050565b600090565b61172d611720565b6117388184846116fb565b505050565b5b8181101561175c57611751600082611725565b60018101905061173e565b5050565b601f8211156117a157611772816114fa565b61177b84611660565b8101602085101561178a578190505b61179e61179685611660565b83018261173d565b50505b505050565b600082821c905092915050565b60006117c4600019846008026117a6565b1980831691505092915050565b60006117dd83836117b3565b9150826002028217905092915050565b6117f682611655565b67ffffffffffffffff81111561180f5761180e610ef0565b5b61181982546114c9565b611824828285611760565b600060209050601f8311600181146118575760008415611845578287015190505b61184f85826117d1565b8655506118b7565b601f198416611865866114fa565b60005b8281101561188d57848901518255600182019150602085019450602081019050611868565b868310156118aa57848901516118a6601f8916826117b3565b8355505b6001600288020188555050505b50505050505056fea2646970667358221220719a4aec141c2c181e5271116da42e187a302cea2215757e686f680439da2c4364736f6c63430008140033697066733a2f2f516d5967336d394b3270384c37513158344a355a3648335932583156305539533841374236433544344533465f41525449464143545f31697066733a2f2f516d62526a4b364d3274573847375838433546345a3948335932583156305539533841374236433544344533465f41525449464143545f32697066733a2f2f516d4558414d504c455f41525449464143545f4d455441444154415f5552495f33","opcodes":"PUSH1 0x80 PUSH1 0x40 MSTORE PUSH8 0x16345785D8A0000 PUSH1 0x3 SSTORE PUSH1 0x64 PUSH1 0x4 SSTORE PUSH1 0x40 MLOAD DUP1 PUSH1 0x60 ADD PUSH1 0x40 MSTORE DUP1 PUSH1 0x40 MLOAD DUP1 PUSH1 0x60 ADD PUSH1 0x40 MSTORE DUP1 PUSH1 0x3E DUP2 MSTORE PUSH1 0x20 ADD PUSH3 0x21EB PUSH1 0x3E SWAP2 CODECOPY DUP2 MSTORE PUSH1 0x20 ADD PUSH1 0x40 MLOAD DUP1 PUSH1 0x60 ADD PUSH1 0x40 MSTORE DUP1 PUSH1 0x3F DUP2 MSTORE PUSH1 0x20 ADD PUSH3 0x2229 PUSH1 0x3F SWAP2 CODECOPY DUP2 MSTORE PUSH1 0x20 ADD PUSH1 0x40 MLOAD DUP1 PUSH1 0x60 ADD PUSH1 0x40 MSTORE DUP1 PUSH1 0x28 DUP2 MSTORE PUSH1 0x20 ADD PUSH3 0x2268 PUSH1 0x28 SWAP2 CODECOPY DUP2 MSTORE POP PUSH1 0x7 SWAP1 PUSH1 0x3 PUSH3 0x8D SWAP3 SWAP2 SWAP1 PUSH3 0x3B9 JUMP JUMPDEST POP CALLVALUE DUP1 ISZERO PUSH3 0x9B JUMPI PUSH1 0x0 DUP1 REVERT JUMPDEST POP PUSH1 0x40 MLOAD PUSH3 0x2290 CODESIZE SUB DUP1 PUSH3 0x2290 DUP4 CODECOPY DUP2 DUP2 ADD PUSH1 0x40 MSTORE DUP2 ADD SWAP1 PUSH3 0xC1 SWAP2 SWAP1 PUSH3 0x510 JUMP JUMPDEST CALLER PUSH1 0x0 PUSH20 0xFFFFFFFFFFFFFFFFFFFFFFFFFFFFFFFFFFFFFFFF AND DUP2 PUSH20 0xFFFFFFFFFFFFFFFFFFFFFFFFFFFFFFFFFFFFFFFF AND SUB PUSH3 0x137 JUMPI PUSH1 0x0 PUSH1 0x40 MLOAD PUSH32 0x1E4FBDF700000000000000000000000000000000000000000000000000000000 DUP2 MSTORE PUSH1 0x4 ADD PUSH3 0x12E SWAP2 SWAP1 PUSH3 0x568 JUMP JUMPDEST PUSH1 0x40 MLOAD DUP1 SWAP2 SUB SWAP1 REVERT JUMPDEST PUSH3 0x148 DUP2 PUSH3 0x2F5 PUSH1 0x20 SHL PUSH1 0x20 SHR JUMP JUMPDEST POP DUP2 PUSH1 0x1 PUSH1 0x0 PUSH2 0x100 EXP DUP2 SLOAD DUP2 PUSH20 0xFFFFFFFFFFFFFFFFFFFFFFFFFFFFFFFFFFFFFFFF MUL NOT AND SWAP1 DUP4 PUSH20 0xFFFFFFFFFFFFFFFFFFFFFFFFFFFFFFFFFFFFFFFF AND MUL OR SWAP1 SSTORE POP DUP1 PUSH1 0x2 PUSH1 0x0 PUSH2 0x100 EXP DUP2 SLOAD DUP2 PUSH20 0xFFFFFFFFFFFFFFFFFFFFFFFFFFFFFFFFFFFFFFFF MUL NOT AND SWAP1 DUP4 PUSH20 0xFFFFFFFFFFFFFFFFFFFFFFFFFFFFFFFFFFFFFFFF AND MUL OR SWAP1 SSTORE POP PUSH1 0x1 PUSH1 0x0 SWAP1 SLOAD SWAP1 PUSH2 0x100 EXP SWAP1 DIV PUSH20 0xFFFFFFFFFFFFFFFFFFFFFFFFFFFFFFFFFFFFFFFF AND PUSH20 0xFFFFFFFFFFFFFFFFFFFFFFFFFFFFFFFFFFFFFFFF AND PUSH4 0xF2FDE38B ADDRESS PUSH1 0x40 MLOAD DUP3 PUSH4 0xFFFFFFFF AND PUSH1 0xE0 SHL DUP2 MSTORE PUSH1 0x4 ADD PUSH3 0x228 SWAP2 SWAP1 PUSH3 0x568 JUMP JUMPDEST PUSH1 0x0 PUSH1 0x40 MLOAD DUP1 DUP4 SUB DUP2 PUSH1 0x0 DUP8 DUP1 EXTCODESIZE ISZERO DUP1 ISZERO PUSH3 0x243 JUMPI PUSH1 0x0 DUP1 REVERT JUMPDEST POP GAS CALL ISZERO DUP1 ISZERO PUSH3 0x258 JUMPI RETURNDATASIZE PUSH1 0x0 DUP1 RETURNDATACOPY RETURNDATASIZE PUSH1 0x0 REVERT JUMPDEST POP POP POP POP PUSH1 0x2 PUSH1 0x0 SWAP1 SLOAD SWAP1 PUSH2 0x100 EXP SWAP1 DIV PUSH20 0xFFFFFFFFFFFFFFFFFFFFFFFFFFFFFFFFFFFFFFFF AND PUSH20 0xFFFFFFFFFFFFFFFFFFFFFFFFFFFFFFFFFFFFFFFF AND PUSH4 0xA843C51F ADDRESS PUSH1 0x40 MLOAD DUP3 PUSH4 0xFFFFFFFF AND PUSH1 0xE0 SHL DUP2 MSTORE PUSH1 0x4 ADD PUSH3 0x2B9 SWAP2 SWAP1 PUSH3 0x568 JUMP JUMPDEST PUSH1 0x0 PUSH1 0x40 MLOAD DUP1 DUP4 SUB DUP2 PUSH1 0x0 DUP8 DUP1 EXTCODESIZE ISZERO DUP1 ISZERO PUSH3 0x2D4 JUMPI PUSH1 0x0 DUP1 REVERT JUMPDEST POP GAS CALL ISZERO DUP1 ISZERO PUSH3 0x2E9 JUMPI RETURNDATASIZE PUSH1 0x0 DUP1 RETURNDATACOPY RETURNDATASIZE PUSH1 0x0 REVERT JUMPDEST POP POP POP POP POP POP PUSH3 0x8E6 JUMP JUMPDEST PUSH1 0x0 DUP1 PUSH1 0x0 SWAP1 SLOAD SWAP1 PUSH2 0x100 EXP SWAP1 DIV PUSH20 0xFFFFFFFFFFFFFFFFFFFFFFFFFFFFFFFFFFFFFFFF AND SWAP1 POP DUP2 PUSH1 0x0 DUP1 PUSH2 0x100 EXP DUP2 SLOAD DUP2 PUSH20 0xFFFFFFFFFFFFFFFFFFFFFFFFFFFFFFFFFFFFFFFF MUL NOT AND SWAP1 DUP4 PUSH20 0xFFFFFFFFFFFFFFFFFFFFFFFFFFFFFFFFFFFFFFFF AND MUL OR SWAP1 SSTORE POP DUP2 PUSH20 0xFFFFFFFFFFFFFFFFFFFFFFFFFFFFFFFFFFFFFFFF AND DUP2 PUSH20 0xFFFFFFFFFFFFFFFFFFFFFFFFFFFFFFFFFFFFFFFF AND PUSH32 0x8BE0079C531659141344CD1FD0A4F28419497F9722A3DAAFE3B4186F6B6457E0 PUSH1 0x40 MLOAD PUSH1 0x40 MLOAD DUP1 SWAP2 SUB SWAP1 LOG3 POP POP JUMP JUMPDEST DUP3 DUP1 SLOAD DUP3 DUP3 SSTORE SWAP1 PUSH1 0x0 MSTORE PUSH1 0x20 PUSH1 0x0 KECCAK256 SWAP1 DUP2 ADD SWAP3 DUP3 ISZERO PUSH3 0x406 JUMPI SWAP2 PUSH1 0x20 MUL DUP3 ADD JUMPDEST DUP3 DUP2 GT ISZERO PUSH3 0x405 JUMPI DUP3 MLOAD DUP3 SWAP1 DUP2 PUSH3 0x3F4 SWAP2 SWAP1 PUSH3 0x7FF JUMP JUMPDEST POP SWAP2 PUSH1 0x20 ADD SWAP2 SWAP1 PUSH1 0x1 ADD SWAP1 PUSH3 0x3DA JUMP JUMPDEST JUMPDEST POP SWAP1 POP PUSH3 0x415 SWAP2 SWAP1 PUSH3 0x419 JUMP JUMPDEST POP SWAP1 JUMP JUMPDEST JUMPDEST DUP1 DUP3 GT ISZERO PUSH3 0x43D JUMPI PUSH1 0x0 DUP2 DUP2 PUSH3 0x433 SWAP2 SWAP1 PUSH3 0x441 JUMP JUMPDEST POP PUSH1 0x1 ADD PUSH3 0x41A JUMP JUMPDEST POP SWAP1 JUMP JUMPDEST POP DUP1 SLOAD PUSH3 0x44F SWAP1 PUSH3 0x5EE JUMP JUMPDEST PUSH1 0x0 DUP3 SSTORE DUP1 PUSH1 0x1F LT PUSH3 0x463 JUMPI POP PUSH3 0x484 JUMP JUMPDEST PUSH1 0x1F ADD PUSH1 0x20 SWAP1 DIV SWAP1 PUSH1 0x0 MSTORE PUSH1 0x20 PUSH1 0x0 KECCAK256 SWAP1 DUP2 ADD SWAP1 PUSH3 0x483 SWAP2 SWAP1 PUSH3 0x487 JUMP JUMPDEST JUMPDEST POP JUMP JUMPDEST JUMPDEST DUP1 DUP3 GT ISZERO PUSH3 0x4A2 JUMPI PUSH1 0x0 DUP2 PUSH1 0x0 SWAP1 SSTORE POP PUSH1 0x1 ADD PUSH3 0x488 JUMP JUMPDEST POP SWAP1 JUMP JUMPDEST PUSH1 0x0 DUP1 REVERT JUMPDEST PUSH1 0x0 PUSH20 0xFFFFFFFFFFFFFFFFFFFFFFFFFFFFFFFFFFFFFFFF DUP3 AND SWAP1 POP SWAP2 SWAP1 POP JUMP JUMPDEST PUSH1 0x0 PUSH3 0x4D8 DUP3 PUSH3 0x4AB JUMP JUMPDEST SWAP1 POP SWAP2 SWAP1 POP JUMP JUMPDEST PUSH3 0x4EA DUP2 PUSH3 0x4CB JUMP JUMPDEST DUP2 EQ PUSH3 0x4F6 JUMPI PUSH1 0x0 DUP1 REVERT JUMPDEST POP JUMP JUMPDEST PUSH1 0x0 DUP2 MLOAD SWAP1 POP PUSH3 0x50A DUP2 PUSH3 0x4DF JUMP JUMPDEST SWAP3 SWAP2 POP POP JUMP JUMPDEST PUSH1 0x0 DUP1 PUSH1 0x40 DUP4 DUP6 SUB SLT ISZERO PUSH3 0x52A JUMPI PUSH3 0x529 PUSH3 0x4A6 JUMP JUMPDEST JUMPDEST PUSH1 0x0 PUSH3 0x53A DUP6 DUP3 DUP7 ADD PUSH3 0x4F9 JUMP JUMPDEST SWAP3 POP POP PUSH1 0x20 PUSH3 0x54D DUP6 DUP3 DUP7 ADD PUSH3 0x4F9 JUMP JUMPDEST SWAP2 POP POP SWAP3 POP SWAP3 SWAP1 POP JUMP JUMPDEST PUSH3 0x562 DUP2 PUSH3 0x4CB JUMP JUMPDEST DUP3 MSTORE POP POP JUMP JUMPDEST PUSH1 0x0 PUSH1 0x20 DUP3 ADD SWAP1 POP PUSH3 0x57F PUSH1 0x0 DUP4 ADD DUP5 PUSH3 0x557 JUMP JUMPDEST SWAP3 SWAP2 POP POP JUMP JUMPDEST PUSH1 0x0 DUP2 MLOAD SWAP1 POP SWAP2 SWAP1 POP JUMP JUMPDEST PUSH32 0x4E487B7100000000000000000000000000000000000000000000000000000000 PUSH1 0x0 MSTORE PUSH1 0x41 PUSH1 0x4 MSTORE PUSH1 0x24 PUSH1 0x0 REVERT JUMPDEST PUSH32 0x4E487B7100000000000000000000000000000000000000000000000000000000 PUSH1 0x0 MSTORE PUSH1 0x22 PUSH1 0x4 MSTORE PUSH1 0x24 PUSH1 0x0 REVERT JUMPDEST PUSH1 0x0 PUSH1 0x2 DUP3 DIV SWAP1 POP PUSH1 0x1 DUP3 AND DUP1 PUSH3 0x607 JUMPI PUSH1 0x7F DUP3 AND SWAP2 POP JUMPDEST PUSH1 0x20 DUP3 LT DUP2 SUB PUSH3 0x61D JUMPI PUSH3 0x61C PUSH3 0x5BF JUMP JUMPDEST JUMPDEST POP SWAP2 SWAP1 POP JUMP JUMPDEST PUSH1 0x0 DUP2 SWAP1 POP DUP2 PUSH1 0x0 MSTORE PUSH1 0x20 PUSH1 0x0 KECCAK256 SWAP1 POP SWAP2 SWAP1 POP JUMP JUMPDEST PUSH1 0x0 PUSH1 0x20 PUSH1 0x1F DUP4 ADD DIV SWAP1 POP SWAP2 SWAP1 POP JUMP JUMPDEST PUSH1 0x0 DUP3 DUP3 SHL SWAP1 POP SWAP3 SWAP2 POP POP JUMP JUMPDEST PUSH1 0x0 PUSH1 0x8 DUP4 MUL PUSH3 0x687 PUSH32 0xFFFFFFFFFFFFFFFFFFFFFFFFFFFFFFFFFFFFFFFFFFFFFFFFFFFFFFFFFFFFFFFF DUP3 PUSH3 0x648 JUMP JUMPDEST PUSH3 0x693 DUP7 DUP4 PUSH3 0x648 JUMP JUMPDEST SWAP6 POP DUP1 NOT DUP5 AND SWAP4 POP DUP1 DUP7 AND DUP5 OR SWAP3 POP POP POP SWAP4 SWAP3 POP POP POP JUMP JUMPDEST PUSH1 0x0 DUP2 SWAP1 POP SWAP2 SWAP1 POP JUMP JUMPDEST PUSH1 0x0 DUP2 SWAP1 POP SWAP2 SWAP1 POP JUMP JUMPDEST PUSH1 0x0 PUSH3 0x6E0 PUSH3 0x6DA PUSH3 0x6D4 DUP5 PUSH3 0x6AB JUMP JUMPDEST PUSH3 0x6B5 JUMP JUMPDEST PUSH3 0x6AB JUMP JUMPDEST SWAP1 POP SWAP2 SWAP1 POP JUMP JUMPDEST PUSH1 0x0 DUP2 SWAP1 POP SWAP2 SWAP1 POP JUMP JUMPDEST PUSH3 0x6FC DUP4 PUSH3 0x6BF JUMP JUMPDEST PUSH3 0x714 PUSH3 0x70B DUP3 PUSH3 0x6E7 JUMP JUMPDEST DUP5 DUP5 SLOAD PUSH3 0x655 JUMP JUMPDEST DUP3 SSTORE POP POP POP POP JUMP JUMPDEST PUSH1 0x0 SWAP1 JUMP JUMPDEST PUSH3 0x72B PUSH3 0x71C JUMP JUMPDEST PUSH3 0x738 DUP2 DUP5 DUP5 PUSH3 0x6F1 JUMP JUMPDEST POP POP POP JUMP JUMPDEST JUMPDEST DUP2 DUP2 LT ISZERO PUSH3 0x760 JUMPI PUSH3 0x754 PUSH1 0x0 DUP3 PUSH3 0x721 JUMP JUMPDEST PUSH1 0x1 DUP2 ADD SWAP1 POP PUSH3 0x73E JUMP JUMPDEST POP POP JUMP JUMPDEST PUSH1 0x1F DUP3 GT ISZERO PUSH3 0x7AF JUMPI PUSH3 0x779 DUP2 PUSH3 0x623 JUMP JUMPDEST PUSH3 0x784 DUP5 PUSH3 0x638 JUMP JUMPDEST DUP2 ADD PUSH1 0x20 DUP6 LT ISZERO PUSH3 0x794 JUMPI DUP2 SWAP1 POP JUMPDEST PUSH3 0x7AC PUSH3 0x7A3 DUP6 PUSH3 0x638 JUMP JUMPDEST DUP4 ADD DUP3 PUSH3 0x73D JUMP JUMPDEST POP POP JUMPDEST POP POP POP JUMP JUMPDEST PUSH1 0x0 DUP3 DUP3 SHR SWAP1 POP SWAP3 SWAP2 POP POP JUMP JUMPDEST PUSH1 0x0 PUSH3 0x7D4 PUSH1 0x0 NOT DUP5 PUSH1 0x8 MUL PUSH3 0x7B4 JUMP JUMPDEST NOT DUP1 DUP4 AND SWAP2 POP POP SWAP3 SWAP2 POP POP JUMP JUMPDEST PUSH1 0x0 PUSH3 0x7EF DUP4 DUP4 PUSH3 0x7C1 JUMP JUMPDEST SWAP2 POP DUP3 PUSH1 0x2 MUL DUP3 OR SWAP1 POP SWAP3 SWAP2 POP POP JUMP JUMPDEST PUSH3 0x80A DUP3 PUSH3 0x585 JUMP JUMPDEST PUSH8 0xFFFFFFFFFFFFFFFF DUP2 GT ISZERO PUSH3 0x826 JUMPI PUSH3 0x825 PUSH3 0x590 JUMP JUMPDEST JUMPDEST PUSH3 0x832 DUP3 SLOAD PUSH3 0x5EE JUMP JUMPDEST PUSH3 0x83F DUP3 DUP3 DUP6 PUSH3 0x764 JUMP JUMPDEST PUSH1 0x0 PUSH1 0x20 SWAP1 POP PUSH1 0x1F DUP4 GT PUSH1 0x1 DUP2 EQ PUSH3 0x877 JUMPI PUSH1 0x0 DUP5 ISZERO PUSH3 0x862 JUMPI DUP3 DUP8 ADD MLOAD SWAP1 POP JUMPDEST PUSH3 0x86E DUP6 DUP3 PUSH3 0x7E1 JUMP JUMPDEST DUP7 SSTORE POP PUSH3 0x8DE JUMP JUMPDEST PUSH1 0x1F NOT DUP5 AND PUSH3 0x887 DUP7 PUSH3 0x623 JUMP JUMPDEST PUSH1 0x0 JUMPDEST DUP3 DUP2 LT ISZERO PUSH3 0x8B1 JUMPI DUP5 DUP10 ADD MLOAD DUP3 SSTORE PUSH1 0x1 DUP3 ADD SWAP2 POP PUSH1 0x20 DUP6 ADD SWAP5 POP PUSH1 0x20 DUP2 ADD SWAP1 POP PUSH3 0x88A JUMP JUMPDEST DUP7 DUP4 LT ISZERO PUSH3 0x8D1 JUMPI DUP5 DUP10 ADD MLOAD PUSH3 0x8CD PUSH1 0x1F DUP10 AND DUP3 PUSH3 0x7C1 JUMP JUMPDEST DUP4 SSTORE POP JUMPDEST PUSH1 0x1 PUSH1 0x2 DUP9 MUL ADD DUP9 SSTORE POP POP POP JUMPDEST POP POP POP POP POP POP JUMP JUMPDEST PUSH2 0x18F5 DUP1 PUSH3 0x8F6 PUSH1 0x0 CODECOPY PUSH1 0x0 RETURN INVALID PUSH1 0x80 PUSH1 0x40 MSTORE CALLVALUE DUP1 ISZERO PUSH2 0x10 JUMPI PUSH1 0x0 DUP1 REVERT JUMPDEST POP PUSH1 0x4 CALLDATASIZE LT PUSH2 0x116 JUMPI PUSH1 0x0 CALLDATALOAD PUSH1 0xE0 SHR DUP1 PUSH4 0x8DA5CB5B GT PUSH2 0xA2 JUMPI DUP1 PUSH4 0x9F393A67 GT PUSH2 0x71 JUMPI DUP1 PUSH4 0x9F393A67 EQ PUSH2 0x2AB JUMPI DUP1 PUSH4 0xB94DB334 EQ PUSH2 0x2C9 JUMPI DUP1 PUSH4 0xE410261D EQ PUSH2 0x2E5 JUMPI DUP1 PUSH4 0xF2FDE38B EQ PUSH2 0x301 JUMPI DUP1 PUSH4 0xFB30FA7F EQ PUSH2 0x31D JUMPI PUSH2 0x116 JUMP JUMPDEST DUP1 PUSH4 0x8DA5CB5B EQ PUSH2 0x247 JUMPI DUP1 PUSH4 0x94002B57 EQ PUSH2 0x265 JUMPI DUP1 PUSH4 0x99F4B251 EQ PUSH2 0x283 JUMPI DUP1 PUSH4 0x9D600752 EQ PUSH2 0x28D JUMPI PUSH2 0x116 JUMP JUMPDEST DUP1 PUSH4 0x3DE3EBF8 GT PUSH2 0xE9 JUMPI DUP1 PUSH4 0x3DE3EBF8 EQ PUSH2 0x1A3 JUMPI DUP1 PUSH4 0x6F354BE6 EQ PUSH2 0x1D3 JUMPI DUP1 PUSH4 0x715018A6 EQ PUSH2 0x203 JUMPI DUP1 PUSH4 0x838BE6C5 EQ PUSH2 0x20D JUMPI DUP1 PUSH4 0x8495EF01 EQ PUSH2 0x22B JUMPI PUSH2 0x116 JUMP JUMPDEST DUP1 PUSH4 0x15ECD3DD EQ PUSH2 0x11B JUMPI DUP1 PUSH4 0x1FDEBC44 EQ PUSH2 0x137 JUMPI DUP1 PUSH4 0x23226AA0 EQ PUSH2 0x155 JUMPI DUP1 PUSH4 0x2F8A261D EQ PUSH2 0x173 JUMPI JUMPDEST PUSH1 0x0 DUP1 REVERT JUMPDEST PUSH2 0x135 PUSH1 0x4 DUP1 CALLDATASIZE SUB DUP2 ADD SWAP1 PUSH2 0x130 SWAP2 SWAP1 PUSH2 0xD7E JUMP JUMPDEST PUSH2 0x33B JUMP JUMPDEST STOP JUMPDEST PUSH2 0x13F PUSH2 0x34D JUMP JUMPDEST PUSH1 0x40 MLOAD PUSH2 0x14C SWAP2 SWAP1 PUSH2 0xDBA JUMP JUMPDEST PUSH1 0x40 MLOAD DUP1 SWAP2 SUB SWAP1 RETURN JUMPDEST PUSH2 0x15D PUSH2 0x352 JUMP JUMPDEST PUSH1 0x40 MLOAD PUSH2 0x16A SWAP2 SWAP1 PUSH2 0xDBA JUMP JUMPDEST PUSH1 0x40 MLOAD DUP1 SWAP2 SUB SWAP1 RETURN JUMPDEST PUSH2 0x18D PUSH1 0x4 DUP1 CALLDATASIZE SUB DUP2 ADD SWAP1 PUSH2 0x188 SWAP2 SWAP1 PUSH2 0xE33 JUMP JUMPDEST PUSH2 0x357 JUMP JUMPDEST PUSH1 0x40 MLOAD PUSH2 0x19A SWAP2 SWAP1 PUSH2 0xDBA JUMP JUMPDEST PUSH1 0x40 MLOAD DUP1 SWAP2 SUB SWAP1 RETURN JUMPDEST PUSH2 0x1BD PUSH1 0x4 DUP1 CALLDATASIZE SUB DUP2 ADD SWAP1 PUSH2 0x1B8 SWAP2 SWAP1 PUSH2 0xE33 JUMP JUMPDEST PUSH2 0x36F JUMP JUMPDEST PUSH1 0x40 MLOAD PUSH2 0x1CA SWAP2 SWAP1 PUSH2 0xDBA JUMP JUMPDEST PUSH1 0x40 MLOAD DUP1 SWAP2 SUB SWAP1 RETURN JUMPDEST PUSH2 0x1ED PUSH1 0x4 DUP1 CALLDATASIZE SUB DUP2 ADD SWAP1 PUSH2 0x1E8 SWAP2 SWAP1 PUSH2 0xE33 JUMP JUMPDEST PUSH2 0x43A JUMP JUMPDEST PUSH1 0x40 MLOAD PUSH2 0x1FA SWAP2 SWAP1 PUSH2 0xDBA JUMP JUMPDEST PUSH1 0x40 MLOAD DUP1 SWAP2 SUB SWAP1 RETURN JUMPDEST PUSH2 0x20B PUSH2 0x452 JUMP JUMPDEST STOP JUMPDEST PUSH2 0x215 PUSH2 0x466 JUMP JUMPDEST PUSH1 0x40 MLOAD PUSH2 0x222 SWAP2 SWAP1 PUSH2 0xEBF JUMP JUMPDEST PUSH1 0x40 MLOAD DUP1 SWAP2 SUB SWAP1 RETURN JUMPDEST PUSH2 0x245 PUSH1 0x4 DUP1 CALLDATASIZE SUB DUP2 ADD SWAP1 PUSH2 0x240 SWAP2 SWAP1 PUSH2 0x1106 JUMP JUMPDEST PUSH2 0x48C JUMP JUMPDEST STOP JUMPDEST PUSH2 0x24F PUSH2 0x4AE JUMP JUMPDEST PUSH1 0x40 MLOAD PUSH2 0x25C SWAP2 SWAP1 PUSH2 0x115E JUMP JUMPDEST PUSH1 0x40 MLOAD DUP1 SWAP2 SUB SWAP1 RETURN JUMPDEST PUSH2 0x26D PUSH2 0x4D7 JUMP JUMPDEST PUSH1 0x40 MLOAD PUSH2 0x27A SWAP2 SWAP1 PUSH2 0x119A JUMP JUMPDEST PUSH1 0x40 MLOAD DUP1 SWAP2 SUB SWAP1 RETURN JUMPDEST PUSH2 0x28B PUSH2 0x4FD JUMP JUMPDEST STOP JUMPDEST PUSH2 0x295 PUSH2 0x7F1 JUMP JUMPDEST PUSH1 0x40 MLOAD PUSH2 0x2A2 SWAP2 SWAP1 PUSH2 0xDBA JUMP JUMPDEST PUSH1 0x40 MLOAD DUP1 SWAP2 SUB SWAP1 RETURN JUMPDEST PUSH2 0x2B3 PUSH2 0x7F7 JUMP JUMPDEST PUSH1 0x40 MLOAD PUSH2 0x2C0 SWAP2 SWAP1 PUSH2 0xDBA JUMP JUMPDEST PUSH1 0x40 MLOAD DUP1 SWAP2 SUB SWAP1 RETURN JUMPDEST PUSH2 0x2E3 PUSH1 0x4 DUP1 CALLDATASIZE SUB DUP2 ADD SWAP1 PUSH2 0x2DE SWAP2 SWAP1 PUSH2 0xD7E JUMP JUMPDEST PUSH2 0x7FC JUMP JUMPDEST STOP JUMPDEST PUSH2 0x2FF PUSH1 0x4 DUP1 CALLDATASIZE SUB DUP2 ADD SWAP1 PUSH2 0x2FA SWAP2 SWAP1 PUSH2 0xE33 JUMP JUMPDEST PUSH2 0x853 JUMP JUMPDEST STOP JUMPDEST PUSH2 0x31B PUSH1 0x4 DUP1 CALLDATASIZE SUB DUP2 ADD SWAP1 PUSH2 0x316 SWAP2 SWAP1 PUSH2 0xE33 JUMP JUMPDEST PUSH2 0x8E7 JUMP JUMPDEST STOP JUMPDEST PUSH2 0x325 PUSH2 0x96D JUMP JUMPDEST PUSH1 0x40 MLOAD PUSH2 0x332 SWAP2 SWAP1 PUSH2 0xDBA JUMP JUMPDEST PUSH1 0x40 MLOAD DUP1 SWAP2 SUB SWAP1 RETURN JUMPDEST PUSH2 0x343 PUSH2 0x973 JUMP JUMPDEST DUP1 PUSH1 0x3 DUP2 SWAP1 SSTORE POP POP JUMP JUMPDEST PUSH1 0x64 DUP2 JUMP JUMPDEST PUSH1 0xA DUP2 JUMP JUMPDEST PUSH1 0x6 PUSH1 0x20 MSTORE DUP1 PUSH1 0x0 MSTORE PUSH1 0x40 PUSH1 0x0 KECCAK256 PUSH1 0x0 SWAP2 POP SWAP1 POP SLOAD DUP2 JUMP JUMPDEST PUSH1 0x0 DUP1 PUSH1 0x6 PUSH1 0x0 DUP5 PUSH20 0xFFFFFFFFFFFFFFFFFFFFFFFFFFFFFFFFFFFFFFFF AND PUSH20 0xFFFFFFFFFFFFFFFFFFFFFFFFFFFFFFFFFFFFFFFF AND DUP2 MSTORE PUSH1 0x20 ADD SWAP1 DUP2 MSTORE PUSH1 0x20 ADD PUSH1 0x0 KECCAK256 SLOAD TIMESTAMP PUSH2 0x3BD SWAP2 SWAP1 PUSH2 0x11E4 JUMP JUMPDEST SWAP1 POP PUSH1 0x0 PUSH1 0x1 PUSH1 0x3C DUP4 PUSH2 0x3D0 SWAP2 SWAP1 PUSH2 0x1247 JUMP JUMPDEST PUSH2 0x3DA SWAP2 SWAP1 PUSH2 0x1278 JUMP JUMPDEST SWAP1 POP PUSH2 0x431 DUP2 PUSH1 0x5 PUSH1 0x0 DUP8 PUSH20 0xFFFFFFFFFFFFFFFFFFFFFFFFFFFFFFFFFFFFFFFF AND PUSH20 0xFFFFFFFFFFFFFFFFFFFFFFFFFFFFFFFFFFFFFFFF AND DUP2 MSTORE PUSH1 0x20 ADD SWAP1 DUP2 MSTORE PUSH1 0x20 ADD PUSH1 0x0 KECCAK256 SLOAD PUSH2 0x42A SWAP2 SWAP1 PUSH2 0x12BA JUMP JUMPDEST PUSH1 0x64 PUSH2 0x9FA JUMP JUMPDEST SWAP3 POP POP POP SWAP2 SWAP1 POP JUMP JUMPDEST PUSH1 0x5 PUSH1 0x20 MSTORE DUP1 PUSH1 0x0 MSTORE PUSH1 0x40 PUSH1 0x0 KECCAK256 PUSH1 0x0 SWAP2 POP SWAP1 POP SLOAD DUP2 JUMP JUMPDEST PUSH2 0x45A PUSH2 0x973 JUMP JUMPDEST PUSH2 0x464 PUSH1 0x0 PUSH2 0xA11 JUMP JUMPDEST JUMP JUMPDEST PUSH1 0x2 PUSH1 0x0 SWAP1 SLOAD SWAP1 PUSH2 0x100 EXP SWAP1 DIV PUSH20 0xFFFFFFFFFFFFFFFFFFFFFFFFFFFFFFFFFFFFFFFF AND DUP2 JUMP JUMPDEST PUSH2 0x494 PUSH2 0x973 JUMP JUMPDEST DUP1 PUSH1 0x7 SWAP1 DUP1 MLOAD SWAP1 PUSH1 0x20 ADD SWAP1 PUSH2 0x4AA SWAP3 SWAP2 SWAP1 PUSH2 0xC5A JUMP JUMPDEST POP POP JUMP JUMPDEST PUSH1 0x0 DUP1 PUSH1 0x0 SWAP1 SLOAD SWAP1 PUSH2 0x100 EXP SWAP1 DIV PUSH20 0xFFFFFFFFFFFFFFFFFFFFFFFFFFFFFFFFFFFFFFFF AND SWAP1 POP SWAP1 JUMP JUMPDEST PUSH1 0x1 PUSH1 0x0 SWAP1 SLOAD SWAP1 PUSH2 0x100 EXP SWAP1 DIV PUSH20 0xFFFFFFFFFFFFFFFFFFFFFFFFFFFFFFFFFFFFFFFF AND DUP2 JUMP JUMPDEST PUSH2 0x506 CALLER PUSH2 0xAD5 JUMP JUMPDEST PUSH1 0xA PUSH1 0x5 PUSH1 0x0 CALLER PUSH20 0xFFFFFFFFFFFFFFFFFFFFFFFFFFFFFFFFFFFFFFFF AND PUSH20 0xFFFFFFFFFFFFFFFFFFFFFFFFFFFFFFFFFFFFFFFF AND DUP2 MSTORE PUSH1 0x20 ADD SWAP1 DUP2 MSTORE PUSH1 0x20 ADD PUSH1 0x0 KECCAK256 SLOAD LT ISZERO PUSH2 0x589 JUMPI PUSH1 0x40 MLOAD PUSH32 0x8C379A000000000000000000000000000000000000000000000000000000000 DUP2 MSTORE PUSH1 0x4 ADD PUSH2 0x580 SWAP1 PUSH2 0x134B JUMP JUMPDEST PUSH1 0x40 MLOAD DUP1 SWAP2 SUB SWAP1 REVERT JUMPDEST PUSH1 0xA PUSH1 0x5 PUSH1 0x0 CALLER PUSH20 0xFFFFFFFFFFFFFFFFFFFFFFFFFFFFFFFFFFFFFFFF AND PUSH20 0xFFFFFFFFFFFFFFFFFFFFFFFFFFFFFFFFFFFFFFFF AND DUP2 MSTORE PUSH1 0x20 ADD SWAP1 DUP2 MSTORE PUSH1 0x20 ADD PUSH1 0x0 KECCAK256 PUSH1 0x0 DUP3 DUP3 SLOAD PUSH2 0x5D9 SWAP2 SWAP1 PUSH2 0x11E4 JUMP JUMPDEST SWAP3 POP POP DUP2 SWAP1 SSTORE POP TIMESTAMP PUSH1 0x6 PUSH1 0x0 CALLER PUSH20 0xFFFFFFFFFFFFFFFFFFFFFFFFFFFFFFFFFFFFFFFF AND PUSH20 0xFFFFFFFFFFFFFFFFFFFFFFFFFFFFFFFFFFFFFFFF AND DUP2 MSTORE PUSH1 0x20 ADD SWAP1 DUP2 MSTORE PUSH1 0x20 ADD PUSH1 0x0 KECCAK256 DUP2 SWAP1 SSTORE POP PUSH1 0x1 PUSH1 0x0 SWAP1 SLOAD SWAP1 PUSH2 0x100 EXP SWAP1 DIV PUSH20 0xFFFFFFFFFFFFFFFFFFFFFFFFFFFFFFFFFFFFFFFF AND PUSH20 0xFFFFFFFFFFFFFFFFFFFFFFFFFFFFFFFFFFFFFFFF AND PUSH4 0x40C10F19 CALLER PUSH1 0x3 SLOAD PUSH1 0x40 MLOAD DUP4 PUSH4 0xFFFFFFFF AND PUSH1 0xE0 SHL DUP2 MSTORE PUSH1 0x4 ADD PUSH2 0x683 SWAP3 SWAP2 SWAP1 PUSH2 0x136B JUMP JUMPDEST PUSH1 0x0 PUSH1 0x40 MLOAD DUP1 DUP4 SUB DUP2 PUSH1 0x0 DUP8 DUP1 EXTCODESIZE ISZERO DUP1 ISZERO PUSH2 0x69D JUMPI PUSH1 0x0 DUP1 REVERT JUMPDEST POP GAS CALL ISZERO DUP1 ISZERO PUSH2 0x6B1 JUMPI RETURNDATASIZE PUSH1 0x0 DUP1 RETURNDATACOPY RETURNDATASIZE PUSH1 0x0 REVERT JUMPDEST POP POP POP POP PUSH1 0x0 PUSH2 0x2710 TIMESTAMP CALLER PREVRANDAO PUSH1 0x40 MLOAD PUSH1 0x20 ADD PUSH2 0x6CF SWAP4 SWAP3 SWAP2 SWAP1 PUSH2 0x13FD JUMP JUMPDEST PUSH1 0x40 MLOAD PUSH1 0x20 DUP2 DUP4 SUB SUB DUP2 MSTORE SWAP1 PUSH1 0x40 MSTORE DUP1 MLOAD SWAP1 PUSH1 0x20 ADD KECCAK256 PUSH1 0x0 SHR PUSH2 0x6F2 SWAP2 SWAP1 PUSH2 0x143A JUMP JUMPDEST SWAP1 POP PUSH1 0x4 SLOAD DUP2 LT ISZERO PUSH2 0x7EE JUMPI PUSH1 0x0 PUSH1 0x7 DUP1 SLOAD SWAP1 POP TIMESTAMP CALLER NUMBER PUSH1 0x40 MLOAD PUSH1 0x20 ADD PUSH2 0x71B SWAP4 SWAP3 SWAP2 SWAP1 PUSH2 0x13FD JUMP JUMPDEST PUSH1 0x40 MLOAD PUSH1 0x20 DUP2 DUP4 SUB SUB DUP2 MSTORE SWAP1 PUSH1 0x40 MSTORE DUP1 MLOAD SWAP1 PUSH1 0x20 ADD KECCAK256 PUSH1 0x0 SHR PUSH2 0x73E SWAP2 SWAP1 PUSH2 0x143A JUMP JUMPDEST SWAP1 POP PUSH1 0x2 PUSH1 0x0 SWAP1 SLOAD SWAP1 PUSH2 0x100 EXP SWAP1 DIV PUSH20 0xFFFFFFFFFFFFFFFFFFFFFFFFFFFFFFFFFFFFFFFF AND PUSH20 0xFFFFFFFFFFFFFFFFFFFFFFFFFFFFFFFFFFFFFFFF AND PUSH4 0xD0DEF521 CALLER PUSH1 0x7 DUP5 DUP2 SLOAD DUP2 LT PUSH2 0x793 JUMPI PUSH2 0x792 PUSH2 0x146B JUMP JUMPDEST JUMPDEST SWAP1 PUSH1 0x0 MSTORE PUSH1 0x20 PUSH1 0x0 KECCAK256 ADD PUSH1 0x40 MLOAD DUP4 PUSH4 0xFFFFFFFF AND PUSH1 0xE0 SHL DUP2 MSTORE PUSH1 0x4 ADD PUSH2 0x7BA SWAP3 SWAP2 SWAP1 PUSH2 0x1593 JUMP JUMPDEST PUSH1 0x0 PUSH1 0x40 MLOAD DUP1 DUP4 SUB DUP2 PUSH1 0x0 DUP8 DUP1 EXTCODESIZE ISZERO DUP1 ISZERO PUSH2 0x7D4 JUMPI PUSH1 0x0 DUP1 REVERT JUMPDEST POP GAS CALL ISZERO DUP1 ISZERO PUSH2 0x7E8 JUMPI RETURNDATASIZE PUSH1 0x0 DUP1 RETURNDATACOPY RETURNDATASIZE PUSH1 0x0 REVERT JUMPDEST POP POP POP POP POP JUMPDEST POP JUMP JUMPDEST PUSH1 0x3 SLOAD DUP2 JUMP JUMPDEST PUSH1 0x1 DUP2 JUMP JUMPDEST PUSH2 0x804 PUSH2 0x973 JUMP JUMPDEST PUSH2 0x2710 DUP2 GT ISZERO PUSH2 0x849 JUMPI PUSH1 0x40 MLOAD PUSH32 0x8C379A000000000000000000000000000000000000000000000000000000000 DUP2 MSTORE PUSH1 0x4 ADD PUSH2 0x840 SWAP1 PUSH2 0x1635 JUMP JUMPDEST PUSH1 0x40 MLOAD DUP1 SWAP2 SUB SWAP1 REVERT JUMPDEST DUP1 PUSH1 0x4 DUP2 SWAP1 SSTORE POP POP JUMP JUMPDEST PUSH2 0x85B PUSH2 0x973 JUMP JUMPDEST PUSH1 0x64 PUSH1 0x5 PUSH1 0x0 DUP4 PUSH20 0xFFFFFFFFFFFFFFFFFFFFFFFFFFFFFFFFFFFFFFFF AND PUSH20 0xFFFFFFFFFFFFFFFFFFFFFFFFFFFFFFFFFFFFFFFF AND DUP2 MSTORE PUSH1 0x20 ADD SWAP1 DUP2 MSTORE PUSH1 0x20 ADD PUSH1 0x0 KECCAK256 DUP2 SWAP1 SSTORE POP TIMESTAMP PUSH1 0x6 PUSH1 0x0 DUP4 PUSH20 0xFFFFFFFFFFFFFFFFFFFFFFFFFFFFFFFFFFFFFFFF AND PUSH20 0xFFFFFFFFFFFFFFFFFFFFFFFFFFFFFFFFFFFFFFFF AND DUP2 MSTORE PUSH1 0x20 ADD SWAP1 DUP2 MSTORE PUSH1 0x20 ADD PUSH1 0x0 KECCAK256 DUP2 SWAP1 SSTORE POP POP JUMP JUMPDEST PUSH2 0x8EF PUSH2 0x973 JUMP JUMPDEST PUSH1 0x0 PUSH20 0xFFFFFFFFFFFFFFFFFFFFFFFFFFFFFFFFFFFFFFFF AND DUP2 PUSH20 0xFFFFFFFFFFFFFFFFFFFFFFFFFFFFFFFFFFFFFFFF AND SUB PUSH2 0x961 JUMPI PUSH1 0x0 PUSH1 0x40 MLOAD PUSH32 0x1E4FBDF700000000000000000000000000000000000000000000000000000000 DUP2 MSTORE PUSH1 0x4 ADD PUSH2 0x958 SWAP2 SWAP1 PUSH2 0x115E JUMP JUMPDEST PUSH1 0x40 MLOAD DUP1 SWAP2 SUB SWAP1 REVERT JUMPDEST PUSH2 0x96A DUP2 PUSH2 0xA11 JUMP JUMPDEST POP JUMP JUMPDEST PUSH1 0x4 SLOAD DUP2 JUMP JUMPDEST PUSH2 0x97B PUSH2 0xC2C JUMP JUMPDEST PUSH20 0xFFFFFFFFFFFFFFFFFFFFFFFFFFFFFFFFFFFFFFFF AND PUSH2 0x999 PUSH2 0x4AE JUMP JUMPDEST PUSH20 0xFFFFFFFFFFFFFFFFFFFFFFFFFFFFFFFFFFFFFFFF AND EQ PUSH2 0x9F8 JUMPI PUSH2 0x9BC PUSH2 0xC2C JUMP JUMPDEST PUSH1 0x40 MLOAD PUSH32 0x118CDAA700000000000000000000000000000000000000000000000000000000 DUP2 MSTORE PUSH1 0x4 ADD PUSH2 0x9EF SWAP2 SWAP1 PUSH2 0x115E JUMP JUMPDEST PUSH1 0x40 MLOAD DUP1 SWAP2 SUB SWAP1 REVERT JUMPDEST JUMP JUMPDEST PUSH1 0x0 PUSH2 0xA09 DUP3 DUP5 LT DUP5 DUP5 PUSH2 0xC34 JUMP JUMPDEST SWAP1 POP SWAP3 SWAP2 POP POP JUMP JUMPDEST PUSH1 0x0 DUP1 PUSH1 0x0 SWAP1 SLOAD SWAP1 PUSH2 0x100 EXP SWAP1 DIV PUSH20 0xFFFFFFFFFFFFFFFFFFFFFFFFFFFFFFFFFFFFFFFF AND SWAP1 POP DUP2 PUSH1 0x0 DUP1 PUSH2 0x100 EXP DUP2 SLOAD DUP2 PUSH20 0xFFFFFFFFFFFFFFFFFFFFFFFFFFFFFFFFFFFFFFFF MUL NOT AND SWAP1 DUP4 PUSH20 0xFFFFFFFFFFFFFFFFFFFFFFFFFFFFFFFFFFFFFFFF AND MUL OR SWAP1 SSTORE POP DUP2 PUSH20 0xFFFFFFFFFFFFFFFFFFFFFFFFFFFFFFFFFFFFFFFF AND DUP2 PUSH20 0xFFFFFFFFFFFFFFFFFFFFFFFFFFFFFFFFFFFFFFFF AND PUSH32 0x8BE0079C531659141344CD1FD0A4F28419497F9722A3DAAFE3B4186F6B6457E0 PUSH1 0x40 MLOAD PUSH1 0x40 MLOAD DUP1 SWAP2 SUB SWAP1 LOG3 POP POP JUMP JUMPDEST PUSH1 0x0 PUSH1 0x6 PUSH1 0x0 DUP4 PUSH20 0xFFFFFFFFFFFFFFFFFFFFFFFFFFFFFFFFFFFFFFFF AND PUSH20 0xFFFFFFFFFFFFFFFFFFFFFFFFFFFFFFFFFFFFFFFF AND DUP2 MSTORE PUSH1 0x20 ADD SWAP1 DUP2 MSTORE PUSH1 0x20 ADD PUSH1 0x0 KECCAK256 SLOAD TIMESTAMP PUSH2 0xB22 SWAP2 SWAP1 PUSH2 0x11E4 JUMP JUMPDEST SWAP1 POP PUSH1 0x0 DUP2 GT ISZERO PUSH2 0xC28 JUMPI PUSH1 0x0 PUSH1 0x1 PUSH1 0x3C DUP4 PUSH2 0xB3E SWAP2 SWAP1 PUSH2 0x1247 JUMP JUMPDEST PUSH2 0xB48 SWAP2 SWAP1 PUSH2 0x1278 JUMP JUMPDEST SWAP1 POP PUSH2 0xB9F DUP2 PUSH1 0x5 PUSH1 0x0 DUP7 PUSH20 0xFFFFFFFFFFFFFFFFFFFFFFFFFFFFFFFFFFFFFFFF AND PUSH20 0xFFFFFFFFFFFFFFFFFFFFFFFFFFFFFFFFFFFFFFFF AND DUP2 MSTORE PUSH1 0x20 ADD SWAP1 DUP2 MSTORE PUSH1 0x20 ADD PUSH1 0x0 KECCAK256 SLOAD PUSH2 0xB98 SWAP2 SWAP1 PUSH2 0x12BA JUMP JUMPDEST PUSH1 0x64 PUSH2 0x9FA JUMP JUMPDEST PUSH1 0x5 PUSH1 0x0 DUP6 PUSH20 0xFFFFFFFFFFFFFFFFFFFFFFFFFFFFFFFFFFFFFFFF AND PUSH20 0xFFFFFFFFFFFFFFFFFFFFFFFFFFFFFFFFFFFFFFFF AND DUP2 MSTORE PUSH1 0x20 ADD SWAP1 DUP2 MSTORE PUSH1 0x20 ADD PUSH1 0x0 KECCAK256 DUP2 SWAP1 SSTORE POP TIMESTAMP PUSH1 0x6 PUSH1 0x0 DUP6 PUSH20 0xFFFFFFFFFFFFFFFFFFFFFFFFFFFFFFFFFFFFFFFF AND PUSH20 0xFFFFFFFFFFFFFFFFFFFFFFFFFFFFFFFFFFFFFFFF AND DUP2 MSTORE PUSH1 0x20 ADD SWAP1 DUP2 MSTORE PUSH1 0x20 ADD PUSH1 0x0 KECCAK256 DUP2 SWAP1 SSTORE POP POP JUMPDEST POP POP JUMP JUMPDEST PUSH1 0x0 CALLER SWAP1 POP SWAP1 JUMP JUMPDEST PUSH1 0x0 PUSH2 0xC3F DUP5 PUSH2 0xC4E JUMP JUMPDEST DUP3 DUP5 XOR MUL DUP3 XOR SWAP1 POP SWAP4 SWAP3 POP POP POP JUMP JUMPDEST PUSH1 0x0 DUP2 ISZERO ISZERO SWAP1 POP SWAP2 SWAP1 POP JUMP JUMPDEST DUP3 DUP1 SLOAD DUP3 DUP3 SSTORE SWAP1 PUSH1 0x0 MSTORE PUSH1 0x20 PUSH1 0x0 KECCAK256 SWAP1 DUP2 ADD SWAP3 DUP3 ISZERO PUSH2 0xCA2 JUMPI SWAP2 PUSH1 0x20 MUL DUP3 ADD JUMPDEST DUP3 DUP2 GT ISZERO PUSH2 0xCA1 JUMPI DUP3 MLOAD DUP3 SWAP1 DUP2 PUSH2 0xC91 SWAP2 SWAP1 PUSH2 0x17ED JUMP JUMPDEST POP SWAP2 PUSH1 0x20 ADD SWAP2 SWAP1 PUSH1 0x1 ADD SWAP1 PUSH2 0xC7A JUMP JUMPDEST JUMPDEST POP SWAP1 POP PUSH2 0xCAF SWAP2 SWAP1 PUSH2 0xCB3 JUMP JUMPDEST POP SWAP1 JUMP JUMPDEST JUMPDEST DUP1 DUP3 GT ISZERO PUSH2 0xCD3 JUMPI PUSH1 0x0 DUP2 DUP2 PUSH2 0xCCA SWAP2 SWAP1 PUSH2 0xCD7 JUMP JUMPDEST POP PUSH1 0x1 ADD PUSH2 0xCB4 JUMP JUMPDEST POP SWAP1 JUMP JUMPDEST POP DUP1 SLOAD PUSH2 0xCE3 SWAP1 PUSH2 0x14C9 JUMP JUMPDEST PUSH1 0x0 DUP3 SSTORE DUP1 PUSH1 0x1F LT PUSH2 0xCF5 JUMPI POP PUSH2 0xD14 JUMP JUMPDEST PUSH1 0x1F ADD PUSH1 0x20 SWAP1 DIV SWAP1 PUSH1 0x0 MSTORE PUSH1 0x20 PUSH1 0x0 KECCAK256 SWAP1 DUP2 ADD SWAP1 PUSH2 0xD13 SWAP2 SWAP1 PUSH2 0xD17 JUMP JUMPDEST JUMPDEST POP JUMP JUMPDEST JUMPDEST DUP1 DUP3 GT ISZERO PUSH2 0xD30 JUMPI PUSH1 0x0 DUP2 PUSH1 0x0 SWAP1 SSTORE POP PUSH1 0x1 ADD PUSH2 0xD18 JUMP JUMPDEST POP SWAP1 JUMP JUMPDEST PUSH1 0x0 PUSH1 0x40 MLOAD SWAP1 POP SWAP1 JUMP JUMPDEST PUSH1 0x0 DUP1 REVERT JUMPDEST PUSH1 0x0 DUP1 REVERT JUMPDEST PUSH1 0x0 DUP2 SWAP1 POP SWAP2 SWAP1 POP JUMP JUMPDEST PUSH2 0xD5B DUP2 PUSH2 0xD48 JUMP JUMPDEST DUP2 EQ PUSH2 0xD66 JUMPI PUSH1 0x0 DUP1 REVERT JUMPDEST POP JUMP JUMPDEST PUSH1 0x0 DUP2 CALLDATALOAD SWAP1 POP PUSH2 0xD78 DUP2 PUSH2 0xD52 JUMP JUMPDEST SWAP3 SWAP2 POP POP JUMP JUMPDEST PUSH1 0x0 PUSH1 0x20 DUP3 DUP5 SUB SLT ISZERO PUSH2 0xD94 JUMPI PUSH2 0xD93 PUSH2 0xD3E JUMP JUMPDEST JUMPDEST PUSH1 0x0 PUSH2 0xDA2 DUP5 DUP3 DUP6 ADD PUSH2 0xD69 JUMP JUMPDEST SWAP2 POP POP SWAP3 SWAP2 POP POP JUMP JUMPDEST PUSH2 0xDB4 DUP2 PUSH2 0xD48 JUMP JUMPDEST DUP3 MSTORE POP POP JUMP JUMPDEST PUSH1 0x0 PUSH1 0x20 DUP3 ADD SWAP1 POP PUSH2 0xDCF PUSH1 0x0 DUP4 ADD DUP5 PUSH2 0xDAB JUMP JUMPDEST SWAP3 SWAP2 POP POP JUMP JUMPDEST PUSH1 0x0 PUSH20 0xFFFFFFFFFFFFFFFFFFFFFFFFFFFFFFFFFFFFFFFF DUP3 AND SWAP1 POP SWAP2 SWAP1 POP JUMP JUMPDEST PUSH1 0x0 PUSH2 0xE00 DUP3 PUSH2 0xDD5 JUMP JUMPDEST SWAP1 POP SWAP2 SWAP1 POP JUMP JUMPDEST PUSH2 0xE10 DUP2 PUSH2 0xDF5 JUMP JUMPDEST DUP2 EQ PUSH2 0xE1B JUMPI PUSH1 0x0 DUP1 REVERT JUMPDEST POP JUMP JUMPDEST PUSH1 0x0 DUP2 CALLDATALOAD SWAP1 POP PUSH2 0xE2D DUP2 PUSH2 0xE07 JUMP JUMPDEST SWAP3 SWAP2 POP POP JUMP JUMPDEST PUSH1 0x0 PUSH1 0x20 DUP3 DUP5 SUB SLT ISZERO PUSH2 0xE49 JUMPI PUSH2 0xE48 PUSH2 0xD3E JUMP JUMPDEST JUMPDEST PUSH1 0x0 PUSH2 0xE57 DUP5 DUP3 DUP6 ADD PUSH2 0xE1E JUMP JUMPDEST SWAP2 POP POP SWAP3 SWAP2 POP POP JUMP JUMPDEST PUSH1 0x0 DUP2 SWAP1 POP SWAP2 SWAP1 POP JUMP JUMPDEST PUSH1 0x0 PUSH2 0xE85 PUSH2 0xE80 PUSH2 0xE7B DUP5 PUSH2 0xDD5 JUMP JUMPDEST PUSH2 0xE60 JUMP JUMPDEST PUSH2 0xDD5 JUMP JUMPDEST SWAP1 POP SWAP2 SWAP1 POP JUMP JUMPDEST PUSH1 0x0 PUSH2 0xE97 DUP3 PUSH2 0xE6A JUMP JUMPDEST SWAP1 POP SWAP2 SWAP1 POP JUMP JUMPDEST PUSH1 0x0 PUSH2 0xEA9 DUP3 PUSH2 0xE8C JUMP JUMPDEST SWAP1 POP SWAP2 SWAP1 POP JUMP JUMPDEST PUSH2 0xEB9 DUP2 PUSH2 0xE9E JUMP JUMPDEST DUP3 MSTORE POP POP JUMP JUMPDEST PUSH1 0x0 PUSH1 0x20 DUP3 ADD SWAP1 POP PUSH2 0xED4 PUSH1 0x0 DUP4 ADD DUP5 PUSH2 0xEB0 JUMP JUMPDEST SWAP3 SWAP2 POP POP JUMP JUMPDEST PUSH1 0x0 DUP1 REVERT JUMPDEST PUSH1 0x0 PUSH1 0x1F NOT PUSH1 0x1F DUP4 ADD AND SWAP1 POP SWAP2 SWAP1 POP JUMP JUMPDEST PUSH32 0x4E487B7100000000000000000000000000000000000000000000000000000000 PUSH1 0x0 MSTORE PUSH1 0x41 PUSH1 0x4 MSTORE PUSH1 0x24 PUSH1 0x0 REVERT JUMPDEST PUSH2 0xF28 DUP3 PUSH2 0xEDF JUMP JUMPDEST DUP2 ADD DUP2 DUP2 LT PUSH8 0xFFFFFFFFFFFFFFFF DUP3 GT OR ISZERO PUSH2 0xF47 JUMPI PUSH2 0xF46 PUSH2 0xEF0 JUMP JUMPDEST JUMPDEST DUP1 PUSH1 0x40 MSTORE POP POP POP JUMP JUMPDEST PUSH1 0x0 PUSH2 0xF5A PUSH2 0xD34 JUMP JUMPDEST SWAP1 POP PUSH2 0xF66 DUP3 DUP3 PUSH2 0xF1F JUMP JUMPDEST SWAP2 SWAP1 POP JUMP JUMPDEST PUSH1 0x0 PUSH8 0xFFFFFFFFFFFFFFFF DUP3 GT ISZERO PUSH2 0xF86 JUMPI PUSH2 0xF85 PUSH2 0xEF0 JUMP JUMPDEST JUMPDEST PUSH1 0x20 DUP3 MUL SWAP1 POP PUSH1 0x20 DUP2 ADD SWAP1 POP SWAP2 SWAP1 POP JUMP JUMPDEST PUSH1 0x0 DUP1 REVERT JUMPDEST PUSH1 0x0 DUP1 REVERT JUMPDEST PUSH1 0x0 PUSH8 0xFFFFFFFFFFFFFFFF DUP3 GT ISZERO PUSH2 0xFBC JUMPI PUSH2 0xFBB PUSH2 0xEF0 JUMP JUMPDEST JUMPDEST PUSH2 0xFC5 DUP3 PUSH2 0xEDF JUMP JUMPDEST SWAP1 POP PUSH1 0x20 DUP2 ADD SWAP1 POP SWAP2 SWAP1 POP JUMP JUMPDEST DUP3 DUP2 DUP4 CALLDATACOPY PUSH1 0x0 DUP4 DUP4 ADD MSTORE POP POP POP JUMP JUMPDEST PUSH1 0x0 PUSH2 0xFF4 PUSH2 0xFEF DUP5 PUSH2 0xFA1 JUMP JUMPDEST PUSH2 0xF50 JUMP JUMPDEST SWAP1 POP DUP3 DUP2 MSTORE PUSH1 0x20 DUP2 ADD DUP5 DUP5 DUP5 ADD GT ISZERO PUSH2 0x1010 JUMPI PUSH2 0x100F PUSH2 0xF9C JUMP JUMPDEST JUMPDEST PUSH2 0x101B DUP5 DUP3 DUP6 PUSH2 0xFD2 JUMP JUMPDEST POP SWAP4 SWAP3 POP POP POP JUMP JUMPDEST PUSH1 0x0 DUP3 PUSH1 0x1F DUP4 ADD SLT PUSH2 0x1038 JUMPI PUSH2 0x1037 PUSH2 0xEDA JUMP JUMPDEST JUMPDEST DUP2 CALLDATALOAD PUSH2 0x1048 DUP5 DUP3 PUSH1 0x20 DUP7 ADD PUSH2 0xFE1 JUMP JUMPDEST SWAP2 POP POP SWAP3 SWAP2 POP POP JUMP JUMPDEST PUSH1 0x0 PUSH2 0x1064 PUSH2 0x105F DUP5 PUSH2 0xF6B JUMP JUMPDEST PUSH2 0xF50 JUMP JUMPDEST SWAP1 POP DUP1 DUP4 DUP3 MSTORE PUSH1 0x20 DUP3 ADD SWAP1 POP PUSH1 0x20 DUP5 MUL DUP4 ADD DUP6 DUP2 GT ISZERO PUSH2 0x1087 JUMPI PUSH2 0x1086 PUSH2 0xF97 JUMP JUMPDEST JUMPDEST DUP4 JUMPDEST DUP2 DUP2 LT ISZERO PUSH2 0x10CE JUMPI DUP1 CALLDATALOAD PUSH8 0xFFFFFFFFFFFFFFFF DUP2 GT ISZERO PUSH2 0x10AC JUMPI PUSH2 0x10AB PUSH2 0xEDA JUMP JUMPDEST JUMPDEST DUP1 DUP7 ADD PUSH2 0x10B9 DUP10 DUP3 PUSH2 0x1023 JUMP JUMPDEST DUP6 MSTORE PUSH1 0x20 DUP6 ADD SWAP5 POP POP POP PUSH1 0x20 DUP2 ADD SWAP1 POP PUSH2 0x1089 JUMP JUMPDEST POP POP POP SWAP4 SWAP3 POP POP POP JUMP JUMPDEST PUSH1 0x0 DUP3 PUSH1 0x1F DUP4 ADD SLT PUSH2 0x10ED JUMPI PUSH2 0x10EC PUSH2 0xEDA JUMP JUMPDEST JUMPDEST DUP2 CALLDATALOAD PUSH2 0x10FD DUP5 DUP3 PUSH1 0x20 DUP7 ADD PUSH2 0x1051 JUMP JUMPDEST SWAP2 POP POP SWAP3 SWAP2 POP POP JUMP JUMPDEST PUSH1 0x0 PUSH1 0x20 DUP3 DUP5 SUB SLT ISZERO PUSH2 0x111C JUMPI PUSH2 0x111B PUSH2 0xD3E JUMP JUMPDEST JUMPDEST PUSH1 0x0 DUP3 ADD CALLDATALOAD PUSH8 0xFFFFFFFFFFFFFFFF DUP2 GT ISZERO PUSH2 0x113A JUMPI PUSH2 0x1139 PUSH2 0xD43 JUMP JUMPDEST JUMPDEST PUSH2 0x1146 DUP5 DUP3 DUP6 ADD PUSH2 0x10D8 JUMP JUMPDEST SWAP2 POP POP SWAP3 SWAP2 POP POP JUMP JUMPDEST PUSH2 0x1158 DUP2 PUSH2 0xDF5 JUMP JUMPDEST DUP3 MSTORE POP POP JUMP JUMPDEST PUSH1 0x0 PUSH1 0x20 DUP3 ADD SWAP1 POP PUSH2 0x1173 PUSH1 0x0 DUP4 ADD DUP5 PUSH2 0x114F JUMP JUMPDEST SWAP3 SWAP2 POP POP JUMP JUMPDEST PUSH1 0x0 PUSH2 0x1184 DUP3 PUSH2 0xE8C JUMP JUMPDEST SWAP1 POP SWAP2 SWAP1 POP JUMP JUMPDEST PUSH2 0x1194 DUP2 PUSH2 0x1179 JUMP JUMPDEST DUP3 MSTORE POP POP JUMP JUMPDEST PUSH1 0x0 PUSH1 0x20 DUP3 ADD SWAP1 POP PUSH2 0x11AF PUSH1 0x0 DUP4 ADD DUP5 PUSH2 0x118B JUMP JUMPDEST SWAP3 SWAP2 POP POP JUMP JUMPDEST PUSH32 0x4E487B7100000000000000000000000000000000000000000000000000000000 PUSH1 0x0 MSTORE PUSH1 0x11 PUSH1 0x4 MSTORE PUSH1 0x24 PUSH1 0x0 REVERT JUMPDEST PUSH1 0x0 PUSH2 0x11EF DUP3 PUSH2 0xD48 JUMP JUMPDEST SWAP2 POP PUSH2 0x11FA DUP4 PUSH2 0xD48 JUMP JUMPDEST SWAP3 POP DUP3 DUP3 SUB SWAP1 POP DUP2 DUP2 GT ISZERO PUSH2 0x1212 JUMPI PUSH2 0x1211 PUSH2 0x11B5 JUMP JUMPDEST JUMPDEST SWAP3 SWAP2 POP POP JUMP JUMPDEST PUSH32 0x4E487B7100000000000000000000000000000000000000000000000000000000 PUSH1 0x0 MSTORE PUSH1 0x12 PUSH1 0x4 MSTORE PUSH1 0x24 PUSH1 0x0 REVERT JUMPDEST PUSH1 0x0 PUSH2 0x1252 DUP3 PUSH2 0xD48 JUMP JUMPDEST SWAP2 POP PUSH2 0x125D DUP4 PUSH2 0xD48 JUMP JUMPDEST SWAP3 POP DUP3 PUSH2 0x126D JUMPI PUSH2 0x126C PUSH2 0x1218 JUMP JUMPDEST JUMPDEST DUP3 DUP3 DIV SWAP1 POP SWAP3 SWAP2 POP POP JUMP JUMPDEST PUSH1 0x0 PUSH2 0x1283 DUP3 PUSH2 0xD48 JUMP JUMPDEST SWAP2 POP PUSH2 0x128E DUP4 PUSH2 0xD48 JUMP JUMPDEST SWAP3 POP DUP3 DUP3 MUL PUSH2 0x129C DUP2 PUSH2 0xD48 JUMP JUMPDEST SWAP2 POP DUP3 DUP3 DIV DUP5 EQ DUP4 ISZERO OR PUSH2 0x12B3 JUMPI PUSH2 0x12B2 PUSH2 0x11B5 JUMP JUMPDEST JUMPDEST POP SWAP3 SWAP2 POP POP JUMP JUMPDEST PUSH1 0x0 PUSH2 0x12C5 DUP3 PUSH2 0xD48 JUMP JUMPDEST SWAP2 POP PUSH2 0x12D0 DUP4 PUSH2 0xD48 JUMP JUMPDEST SWAP3 POP DUP3 DUP3 ADD SWAP1 POP DUP1 DUP3 GT ISZERO PUSH2 0x12E8 JUMPI PUSH2 0x12E7 PUSH2 0x11B5 JUMP JUMPDEST JUMPDEST SWAP3 SWAP2 POP POP JUMP JUMPDEST PUSH1 0x0 DUP3 DUP3 MSTORE PUSH1 0x20 DUP3 ADD SWAP1 POP SWAP3 SWAP2 POP POP JUMP JUMPDEST PUSH32 0x4E6F7420656E6F75676820656E6572677920746F206D696E652E000000000000 PUSH1 0x0 DUP3 ADD MSTORE POP JUMP JUMPDEST PUSH1 0x0 PUSH2 0x1335 PUSH1 0x1A DUP4 PUSH2 0x12EE JUMP JUMPDEST SWAP2 POP PUSH2 0x1340 DUP3 PUSH2 0x12FF JUMP JUMPDEST PUSH1 0x20 DUP3 ADD SWAP1 POP SWAP2 SWAP1 POP JUMP JUMPDEST PUSH1 0x0 PUSH1 0x20 DUP3 ADD SWAP1 POP DUP2 DUP2 SUB PUSH1 0x0 DUP4 ADD MSTORE PUSH2 0x1364 DUP2 PUSH2 0x1328 JUMP JUMPDEST SWAP1 POP SWAP2 SWAP1 POP JUMP JUMPDEST PUSH1 0x0 PUSH1 0x40 DUP3 ADD SWAP1 POP PUSH2 0x1380 PUSH1 0x0 DUP4 ADD DUP6 PUSH2 0x114F JUMP JUMPDEST PUSH2 0x138D PUSH1 0x20 DUP4 ADD DUP5 PUSH2 0xDAB JUMP JUMPDEST SWAP4 SWAP3 POP POP POP JUMP JUMPDEST PUSH1 0x0 DUP2 SWAP1 POP SWAP2 SWAP1 POP JUMP JUMPDEST PUSH2 0x13AF PUSH2 0x13AA DUP3 PUSH2 0xD48 JUMP JUMPDEST PUSH2 0x1394 JUMP JUMPDEST DUP3 MSTORE POP POP JUMP JUMPDEST PUSH1 0x0 DUP2 PUSH1 0x60 SHL SWAP1 POP SWAP2 SWAP1 POP JUMP JUMPDEST PUSH1 0x0 PUSH2 0x13CD DUP3 PUSH2 0x13B5 JUMP JUMPDEST SWAP1 POP SWAP2 SWAP1 POP JUMP JUMPDEST PUSH1 0x0 PUSH2 0x13DF DUP3 PUSH2 0x13C2 JUMP JUMPDEST SWAP1 POP SWAP2 SWAP1 POP JUMP JUMPDEST PUSH2 0x13F7 PUSH2 0x13F2 DUP3 PUSH2 0xDF5 JUMP JUMPDEST PUSH2 0x13D4 JUMP JUMPDEST DUP3 MSTORE POP POP JUMP JUMPDEST PUSH1 0x0 PUSH2 0x1409 DUP3 DUP7 PUSH2 0x139E JUMP JUMPDEST PUSH1 0x20 DUP3 ADD SWAP2 POP PUSH2 0x1419 DUP3 DUP6 PUSH2 0x13E6 JUMP JUMPDEST PUSH1 0x14 DUP3 ADD SWAP2 POP PUSH2 0x1429 DUP3 DUP5 PUSH2 0x139E JUMP JUMPDEST PUSH1 0x20 DUP3 ADD SWAP2 POP DUP2 SWAP1 POP SWAP5 SWAP4 POP POP POP POP JUMP JUMPDEST PUSH1 0x0 PUSH2 0x1445 DUP3 PUSH2 0xD48 JUMP JUMPDEST SWAP2 POP PUSH2 0x1450 DUP4 PUSH2 0xD48 JUMP JUMPDEST SWAP3 POP DUP3 PUSH2 0x1460 JUMPI PUSH2 0x145F PUSH2 0x1218 JUMP JUMPDEST JUMPDEST DUP3 DUP3 MOD SWAP1 POP SWAP3 SWAP2 POP POP JUMP JUMPDEST PUSH32 0x4E487B7100000000000000000000000000000000000000000000000000000000 PUSH1 0x0 MSTORE PUSH1 0x32 PUSH1 0x4 MSTORE PUSH1 0x24 PUSH1 0x0 REVERT JUMPDEST PUSH32 0x4E487B7100000000000000000000000000000000000000000000000000000000 PUSH1 0x0 MSTORE PUSH1 0x22 PUSH1 0x4 MSTORE PUSH1 0x24 PUSH1 0x0 REVERT JUMPDEST PUSH1 0x0 PUSH1 0x2 DUP3 DIV SWAP1 POP PUSH1 0x1 DUP3 AND DUP1 PUSH2 0x14E1 JUMPI PUSH1 0x7F DUP3 AND SWAP2 POP JUMPDEST PUSH1 0x20 DUP3 LT DUP2 SUB PUSH2 0x14F4 JUMPI PUSH2 0x14F3 PUSH2 0x149A JUMP JUMPDEST JUMPDEST POP SWAP2 SWAP1 POP JUMP JUMPDEST PUSH1 0x0 DUP2 SWAP1 POP DUP2 PUSH1 0x0 MSTORE PUSH1 0x20 PUSH1 0x0 KECCAK256 SWAP1 POP SWAP2 SWAP1 POP JUMP JUMPDEST PUSH1 0x0 DUP2 SLOAD PUSH2 0x151C DUP2 PUSH2 0x14C9 JUMP JUMPDEST PUSH2 0x1526 DUP2 DUP7 PUSH2 0x12EE JUMP JUMPDEST SWAP5 POP PUSH1 0x1 DUP3 AND PUSH1 0x0 DUP2 EQ PUSH2 0x1541 JUMPI PUSH1 0x1 DUP2 EQ PUSH2 0x1557 JUMPI PUSH2 0x158A JUMP JUMPDEST PUSH1 0xFF NOT DUP4 AND DUP7 MSTORE DUP2 ISZERO ISZERO PUSH1 0x20 MUL DUP7 ADD SWAP4 POP PUSH2 0x158A JUMP JUMPDEST PUSH2 0x1560 DUP6 PUSH2 0x14FA JUMP JUMPDEST PUSH1 0x0 JUMPDEST DUP4 DUP2 LT ISZERO PUSH2 0x1582 JUMPI DUP2 SLOAD DUP2 DUP10 ADD MSTORE PUSH1 0x1 DUP3 ADD SWAP2 POP PUSH1 0x20 DUP2 ADD SWAP1 POP PUSH2 0x1563 JUMP JUMPDEST DUP1 DUP9 ADD SWAP6 POP POP POP JUMPDEST POP POP POP SWAP3 SWAP2 POP POP JUMP JUMPDEST PUSH1 0x0 PUSH1 0x40 DUP3 ADD SWAP1 POP PUSH2 0x15A8 PUSH1 0x0 DUP4 ADD DUP6 PUSH2 0x114F JUMP JUMPDEST DUP2 DUP2 SUB PUSH1 0x20 DUP4 ADD MSTORE PUSH2 0x15BA DUP2 DUP5 PUSH2 0x150F JUMP JUMPDEST SWAP1 POP SWAP4 SWAP3 POP POP POP JUMP JUMPDEST PUSH32 0x50726F626162696C6974792063616E6E6F742065786365656420313030303020 PUSH1 0x0 DUP3 ADD MSTORE PUSH32 0x2831303025290000000000000000000000000000000000000000000000000000 PUSH1 0x20 DUP3 ADD MSTORE POP JUMP JUMPDEST PUSH1 0x0 PUSH2 0x161F PUSH1 0x26 DUP4 PUSH2 0x12EE JUMP JUMPDEST SWAP2 POP PUSH2 0x162A DUP3 PUSH2 0x15C3 JUMP JUMPDEST PUSH1 0x40 DUP3 ADD SWAP1 POP SWAP2 SWAP1 POP JUMP JUMPDEST PUSH1 0x0 PUSH1 0x20 DUP3 ADD SWAP1 POP DUP2 DUP2 SUB PUSH1 0x0 DUP4 ADD MSTORE PUSH2 0x164E DUP2 PUSH2 0x1612 JUMP JUMPDEST SWAP1 POP SWAP2 SWAP1 POP JUMP JUMPDEST PUSH1 0x0 DUP2 MLOAD SWAP1 POP SWAP2 SWAP1 POP JUMP JUMPDEST PUSH1 0x0 PUSH1 0x20 PUSH1 0x1F DUP4 ADD DIV SWAP1 POP SWAP2 SWAP1 POP JUMP JUMPDEST PUSH1 0x0 DUP3 DUP3 SHL SWAP1 POP SWAP3 SWAP2 POP POP JUMP JUMPDEST PUSH1 0x0 PUSH1 0x8 DUP4 MUL PUSH2 0x16AD PUSH32 0xFFFFFFFFFFFFFFFFFFFFFFFFFFFFFFFFFFFFFFFFFFFFFFFFFFFFFFFFFFFFFFFF DUP3 PUSH2 0x1670 JUMP JUMPDEST PUSH2 0x16B7 DUP7 DUP4 PUSH2 0x1670 JUMP JUMPDEST SWAP6 POP DUP1 NOT DUP5 AND SWAP4 POP DUP1 DUP7 AND DUP5 OR SWAP3 POP POP POP SWAP4 SWAP3 POP POP POP JUMP JUMPDEST PUSH1 0x0 PUSH2 0x16EA PUSH2 0x16E5 PUSH2 0x16E0 DUP5 PUSH2 0xD48 JUMP JUMPDEST PUSH2 0xE60 JUMP JUMPDEST PUSH2 0xD48 JUMP JUMPDEST SWAP1 POP SWAP2 SWAP1 POP JUMP JUMPDEST PUSH1 0x0 DUP2 SWAP1 POP SWAP2 SWAP1 POP JUMP JUMPDEST PUSH2 0x1704 DUP4 PUSH2 0x16CF JUMP JUMPDEST PUSH2 0x1718 PUSH2 0x1710 DUP3 PUSH2 0x16F1 JUMP JUMPDEST DUP5 DUP5 SLOAD PUSH2 0x167D JUMP JUMPDEST DUP3 SSTORE POP POP POP POP JUMP JUMPDEST PUSH1 0x0 SWAP1 JUMP JUMPDEST PUSH2 0x172D PUSH2 0x1720 JUMP JUMPDEST PUSH2 0x1738 DUP2 DUP5 DUP5 PUSH2 0x16FB JUMP JUMPDEST POP POP POP JUMP JUMPDEST JUMPDEST DUP2 DUP2 LT ISZERO PUSH2 0x175C JUMPI PUSH2 0x1751 PUSH1 0x0 DUP3 PUSH2 0x1725 JUMP JUMPDEST PUSH1 0x1 DUP2 ADD SWAP1 POP PUSH2 0x173E JUMP JUMPDEST POP POP JUMP JUMPDEST PUSH1 0x1F DUP3 GT ISZERO PUSH2 0x17A1 JUMPI PUSH2 0x1772 DUP2 PUSH2 0x14FA JUMP JUMPDEST PUSH2 0x177B DUP5 PUSH2 0x1660 JUMP JUMPDEST DUP2 ADD PUSH1 0x20 DUP6 LT ISZERO PUSH2 0x178A JUMPI DUP2 SWAP1 POP JUMPDEST PUSH2 0x179E PUSH2 0x1796 DUP6 PUSH2 0x1660 JUMP JUMPDEST DUP4 ADD DUP3 PUSH2 0x173D JUMP JUMPDEST POP POP JUMPDEST POP POP POP JUMP JUMPDEST PUSH1 0x0 DUP3 DUP3 SHR SWAP1 POP SWAP3 SWAP2 POP POP JUMP JUMPDEST PUSH1 0x0 PUSH2 0x17C4 PUSH1 0x0 NOT DUP5 PUSH1 0x8 MUL PUSH2 0x17A6 JUMP JUMPDEST NOT DUP1 DUP4 AND SWAP2 POP POP SWAP3 SWAP2 POP POP JUMP JUMPDEST PUSH1 0x0 PUSH2 0x17DD DUP4 DUP4 PUSH2 0x17B3 JUMP JUMPDEST SWAP2 POP DUP3 PUSH1 0x2 MUL DUP3 OR SWAP1 POP SWAP3 SWAP2 POP POP JUMP JUMPDEST PUSH2 0x17F6 DUP3 PUSH2 0x1655 JUMP JUMPDEST PUSH8 0xFFFFFFFFFFFFFFFF DUP2 GT ISZERO PUSH2 0x180F JUMPI PUSH2 0x180E PUSH2 0xEF0 JUMP JUMPDEST JUMPDEST PUSH2 0x1819 DUP3 SLOAD PUSH2 0x14C9 JUMP JUMPDEST PUSH2 0x1824 DUP3 DUP3 DUP6 PUSH2 0x1760 JUMP JUMPDEST PUSH1 0x0 PUSH1 0x20 SWAP1 POP PUSH1 0x1F DUP4 GT PUSH1 0x1 DUP2 EQ PUSH2 0x1857 JUMPI PUSH1 0x0 DUP5 ISZERO PUSH2 0x1845 JUMPI DUP3 DUP8 ADD MLOAD SWAP1 POP JUMPDEST PUSH2 0x184F DUP6 DUP3 PUSH2 0x17D1 JUMP JUMPDEST DUP7 SSTORE POP PUSH2 0x18B7 JUMP JUMPDEST PUSH1 0x1F NOT DUP5 AND PUSH2 0x1865 DUP7 PUSH2 0x14FA JUMP JUMPDEST PUSH1 0x0 JUMPDEST DUP3 DUP2 LT ISZERO PUSH2 0x188D JUMPI DUP5 DUP10 ADD MLOAD DUP3 SSTORE PUSH1 0x1 DUP3 ADD SWAP2 POP PUSH1 0x20 DUP6 ADD SWAP5 POP PUSH1 0x20 DUP2 ADD SWAP1 POP PUSH2 0x1868 JUMP JUMPDEST DUP7 DUP4 LT ISZERO PUSH2 0x18AA JUMPI DUP5 DUP10 ADD MLOAD PUSH2 0x18A6 PUSH1 0x1F DUP10 AND DUP3 PUSH2 0x17B3 JUMP JUMPDEST DUP4 SSTORE POP JUMPDEST PUSH1 0x1 PUSH1 0x2 DUP9 MUL ADD DUP9 SSTORE POP POP POP JUMPDEST POP POP POP POP POP POP JUMP INVALID LOG2 PUSH5 0x6970667358 0x22 SLT KECCAK256 PUSH18 0x9A4AEC141C2C181E5271116DA42E187A302C 0xEA 0x22 ISZERO PUSH22 0x7E686F680439DA2C4364736F6C634300081400336970 PUSH7 0x733A2F2F516D59 PUSH8 0x336D394B3270384C CALLDATACOPY MLOAD BALANCE PC CALLVALUE 0x4A CALLDATALOAD GAS CALLDATASIZE BASEFEE CALLER MSIZE ORIGIN PC BALANCE JUMP ADDRESS SSTORE CODECOPY MSTORE8 CODESIZE COINBASE CALLDATACOPY TIMESTAMP CALLDATASIZE NUMBER CALLDATALOAD PREVRANDAO CALLVALUE GASLIMIT CALLER CHAINID PUSH0 COINBASE MSTORE SLOAD 0x49 CHAINID COINBASE NUMBER SLOAD PUSH0 BALANCE PUSH10 0x7066733A2F2F516D6252 PUSH11 0x4B364D3274573847375838 NUMBER CALLDATALOAD CHAINID CALLVALUE GAS CODECOPY BASEFEE CALLER MSIZE ORIGIN PC BALANCE JUMP ADDRESS SSTORE CODECOPY MSTORE8 CODESIZE COINBASE CALLDATACOPY TIMESTAMP CALLDATASIZE NUMBER CALLDATALOAD PREVRANDAO CALLVALUE GASLIMIT CALLER CHAINID PUSH0 COINBASE MSTORE SLOAD 0x49 CHAINID COINBASE NUMBER SLOAD PUSH0 ORIGIN PUSH10 0x7066733A2F2F516D4558 COINBASE 0x4D POP 0x4C GASLIMIT PUSH0 COINBASE MSTORE SLOAD 0x49 CHAINID COINBASE NUMBER SLOAD PUSH0 0x4D GASLIMIT SLOAD COINBASE PREVRANDAO COINBASE SLOAD COINBASE PUSH0 SSTORE MSTORE 0x49 PUSH0 CALLER "},"methodIdentifiers":{"ENERGY_PER_MINE()":"23226aa0","ENERGY_REGEN_RATE_PER_MINUTE()":"9f393a67","MAX_ENERGY()":"1fdebc44","gameAssetNFT()":"838be6c5","getPlayerEnergy(address)":"3de3ebf8","goldToken()":"94002b57","initializePlayerEnergy(address)":"e410261d","lastEnergyUpdateTime(address)":"2f8a261d","mine()":"99f4b251","miningRewardAmount()":"9d600752","nftDropProbability()":"fb30fa7f","owner()":"8da5cb5b","playerEnergy(address)":"6f354be6","renounceOwnership()":"715018a6","setArtifactUris(string[])":"8495ef01","setMiningRewardAmount(uint256)":"15ecd3dd","setNftDropProbability(uint256)":"b94db334","transferOwnership(address)":"f2fde38b"}}}}}