{
  "_format": "hh-sol-artifact-1",
  "contractName": "GameAssetNFT",
  "sourceName": "contracts/GameAssetNFT.sol",
  "abi": [
    {
      "inputs": [
        {
          "internalType": "string",
          "name": "name",
          "type": "string"
        },
        {
          "internalType": "string",
          "name": "symbol",
          "type": "string"
        },
        {
          "internalType": "string",
          "name": "baseURI_",
          "type": "string"
        }
      ],
      "stateMutability": "nonpayable",
      "type": "constructor"
    },
    {
      "inputs": [
        {
          "internalType": "address",
          "name": "sender",
          "type": "address"
        },
        {
          "internalType": "uint256",
          "name": "tokenId",
          "type": "uint256"
        },
        {
          "internalType": "address",
          "name": "owner",
          "type": "address"
        }
      ],
      "name": "ERC721IncorrectOwner",
      "type": "error"
    },
    {
      "inputs": [
        {
          "internalType": "address",
          "name": "operator",
          "type": "address"
        },
        {
          "internalType": "uint256",
          "name": "tokenId",
          "type": "uint256"
        }
      ],
      "name": "ERC721InsufficientApproval",
      "type": "error"
    },
    {
      "inputs": [
        {
          "internalType": "address",
          "name": "approver",
          "type": "address"
        }
      ],
      "name": "ERC721InvalidApprover",
      "type": "error"
    },
    {
      "inputs": [
        {
          "internalType": "address",
          "name": "operator",
          "type": "address"
        }
      ],
      "name": "ERC721InvalidOperator",
      "type": "error"
    },
    {
      "inputs": [
        {
          "internalType": "address",
          "name": "owner",
          "type": "address"
        }
      ],
      "name": "ERC721InvalidOwner",
      "type": "error"
    },
    {
      "inputs": [
        {
          "internalType": "address",
          "name": "receiver",
          "type": "address"
        }
      ],
      "name": "ERC721InvalidReceiver",
      "type": "error"
    },
    {
      "inputs": [
        {
          "internalType": "address",
          "name": "sender",
          "type": "address"
        }
      ],
      "name": "ERC721InvalidSender",
      "type": "error"
    },
    {
      "inputs": [
        {
          "internalType": "uint256",
          "name": "tokenId",
          "type": "uint256"
        }
      ],
      "name": "ERC721NonexistentToken",
      "type": "error"
    },
    {
      "inputs": [
        {
          "internalType": "address",
          "name": "owner",
          "type": "address"
        }
      ],
      "name": "OwnableInvalidOwner",
      "type": "error"
    },
    {
      "inputs": [
        {
          "internalType": "address",
          "name": "account",
          "type": "address"
        }
      ],
      "name": "OwnableUnauthorizedAccount",
      "type": "error"
    },
    {
      "anonymous": false,
      "inputs": [
        {
          "indexed": true,
          "internalType": "address",
          "name": "owner",
          "type": "address"
        },
        {
          "indexed": true,
          "internalType": "address",
          "name": "approved",
          "type": "address"
        },
        {
          "indexed": true,
          "internalType": "uint256",
          "name": "tokenId",
          "type": "uint256"
        }
      ],
      "name": "Approval",
      "type": "event"
    },
    {
      "anonymous": false,
      "inputs": [
        {
          "indexed": true,
          "internalType": "address",
          "name": "owner",
          "type": "address"
        },
        {
          "indexed": true,
          "internalType": "address",
          "name": "operator",
          "type": "address"
        },
        {
          "indexed": false,
          "internalType": "bool",
          "name": "approved",
          "type": "bool"
        }
      ],
      "name": "ApprovalForAll",
      "type": "event"
    },
    {
      "anonymous": false,
      "inputs": [
        {
          "indexed": false,
          "internalType": "uint256",
          "name": "_fromTokenId",
          "type": "uint256"
        },
        {
          "indexed": false,
          "internalType": "uint256",
          "name": "_toTokenId",
          "type": "uint256"
        }
      ],
      "name": "BatchMetadataUpdate",
      "type": "event"
    },
    {
      "anonymous": false,
      "inputs": [
        {
          "indexed": false,
          "internalType": "uint256",
          "name": "_tokenId",
          "type": "uint256"
        }
      ],
      "name": "MetadataUpdate",
      "type": "event"
    },
    {
      "anonymous": false,
      "inputs": [
        {
          "indexed": true,
          "internalType": "address",
          "name": "previousOwner",
          "type": "address"
        },
        {
          "indexed": true,
          "internalType": "address",
          "name": "newOwner",
          "type": "address"
        }
      ],
      "name": "OwnershipTransferred",
      "type": "event"
    },
    {
      "anonymous": false,
      "inputs": [
        {
          "indexed": true,
          "internalType": "address",
          "name": "from",
          "type": "address"
        },
        {
          "indexed": true,
          "internalType": "address",
          "name": "to",
          "type": "address"
        },
        {
          "indexed": true,
          "internalType": "uint256",
          "name": "tokenId",
          "type": "uint256"
        }
      ],
      "name": "Transfer",
      "type": "event"
    },
    {
      "inputs": [
        {
          "internalType": "address",
          "name": "to",
          "type": "address"
        },
        {
          "internalType": "uint256",
          "name": "tokenId",
          "type": "uint256"
        }
      ],
      "name": "approve",
      "outputs": [],
      "stateMutability": "nonpayable",
      "type": "function"
    },
    {
      "inputs": [
        {
          "internalType": "address",
          "name": "owner",
          "type": "address"
        }
      ],
      "name": "balanceOf",
      "outputs": [
        {
          "internalType": "uint256",
          "name": "",
          "type": "uint256"
        }
      ],
      "stateMutability": "view",
      "type": "function"
    },
    {
      "inputs": [
        {
          "internalType": "uint256",
          "name": "tokenId",
          "type": "uint256"
        }
      ],
      "name": "getApproved",
      "outputs": [
        {
          "internalType": "address",
          "name": "",
          "type": "address"
        }
      ],
      "stateMutability": "view",
      "type": "function"
    },
    {
      "inputs": [
        {
          "internalType": "address",
          "name": "owner",
          "type": "address"
        },
        {
          "internalType": "address",
          "name": "operator",
          "type": "address"
        }
      ],
      "name": "isApprovedForAll",
      "outputs": [
        {
          "internalType": "bool",
          "name": "",
          "type": "bool"
        }
      ],
      "stateMutability": "view",
      "type": "function"
    },
    {
      "inputs": [
        {
          "internalType": "address",
          "name": "player",
          "type": "address"
        },
        {
          "internalType": "string",
          "name": "tokenURI",
          "type": "string"
        }
      ],
      "name": "mint",
      "outputs": [],
      "stateMutability": "nonpayable",
      "type": "function"
    },
    {
      "inputs": [],
      "name": "name",
      "outputs": [
        {
          "internalType": "string",
          "name": "",
          "type": "string"
        }
      ],
      "stateMutability": "view",
      "type": "function"
    },
    {
      "inputs": [],
      "name": "owner",
      "outputs": [
        {
          "internalType": "address",
          "name": "",
          "type": "address"
        }
      ],
      "stateMutability": "view",
      "type": "function"
    },
    {
      "inputs": [
        {
          "internalType": "uint256",
          "name": "tokenId",
          "type": "uint256"
        }
      ],
      "name": "ownerOf",
      "outputs": [
        {
          "internalType": "address",
          "name": "",
          "type": "address"
        }
      ],
      "stateMutability": "view",
      "type": "function"
    },
    {
      "inputs": [],
      "name": "renounceOwnership",
      "outputs": [],
      "stateMutability": "nonpayable",
      "type": "function"
    },
    {
      "inputs": [
        {
          "internalType": "address",
          "name": "from",
          "type": "address"
        },
        {
          "internalType": "address",
          "name": "to",
          "type": "address"
        },
        {
          "internalType": "uint256",
          "name": "tokenId",
          "type": "uint256"
        }
      ],
      "name": "safeTransferFrom",
      "outputs": [],
      "stateMutability": "nonpayable",
      "type": "function"
    },
    {
      "inputs": [
        {
          "internalType": "address",
          "name": "from",
          "type": "address"
        },
        {
          "internalType": "address",
          "name": "to",
          "type": "address"
        },
        {
          "internalType": "uint256",
          "name": "tokenId",
          "type": "uint256"
        },
        {
          "internalType": "bytes",
          "name": "data",
          "type": "bytes"
        }
      ],
      "name": "safeTransferFrom",
      "outputs": [],
      "stateMutability": "nonpayable",
      "type": "function"
    },
    {
      "inputs": [
        {
          "internalType": "address",
          "name": "operator",
          "type": "address"
        },
        {
          "internalType": "bool",
          "name": "approved",
          "type": "bool"
        }
      ],
      "name": "setApprovalForAll",
      "outputs": [],
      "stateMutability": "nonpayable",
      "type": "function"
    },
    {
      "inputs": [
        {
          "internalType": "string",
          "name": "baseURI_",
          "type": "string"
        }
      ],
      "name": "setBaseURI",
      "outputs": [],
      "stateMutability": "nonpayable",
      "type": "function"
    },
    {
      "inputs": [
        {
          "internalType": "bytes4",
          "name": "interfaceId",
          "type": "bytes4"
        }
      ],
      "name": "supportsInterface",
      "outputs": [
        {
          "internalType": "bool",
          "name": "",
          "type": "bool"
        }
      ],
      "stateMutability": "view",
      "type": "function"
    },
    {
      "inputs": [],
      "name": "symbol",
      "outputs": [
        {
          "internalType": "string",
          "name": "",
          "type": "string"
        }
      ],
      "stateMutability": "view",
      "type": "function"
    },
    {
      "inputs": [
        {
          "internalType": "uint256",
          "name": "tokenId",
          "type": "uint256"
        }
      ],
      "name": "tokenURI",
      "outputs": [
        {
          "internalType": "string",
          "name": "",
          "type": "string"
        }
      ],
      "stateMutability": "view",
      "type": "function"
    },
    {
      "inputs": [
        {
          "internalType": "address",
          "name": "newOwner",
          "type": "address"
        }
      ],
      "name": "transferContractOwnership",
      "outputs": [],
      "stateMutability": "nonpayable",
      "type": "function"
    },
    {
      "inputs": [
        {
          "internalType": "address",
          "name": "from",
          "type": "address"
        },
        {
          "internalType": "address",
          "name": "to",
          "type": "address"
        },
        {
          "internalType": "uint256",
          "name": "tokenId",
          "type": "uint256"
        }
      ],
      "name": "transferFrom",
      "outputs": [],
      "stateMutability": "nonpayable",
      "type": "function"
    },
    {
      "inputs": [
        {
          "internalType": "address",
          "name": "newOwner",
          "type": "address"
        }
      ],
      "name": "transferOwnership",
      "outputs": [],
      "stateMutability": "nonpayable",
      "type": "function"
    }
  ],
  "bytecode": "0x60806040523480156200001157600080fd5b5060405162002f6138038062002f6183398181016040528101906200003791906200035b565b33838381600090816200004b91906200065f565b5080600190816200005d91906200065f565b505050600073ffffffffffffffffffffffffffffffffffffffff168173ffffffffffffffffffffffffffffffffffffffff1603620000d55760006040517f1e4fbdf7000000000000000000000000000000000000000000000000000000008152600401620000cc91906200078b565b60405180910390fd5b620000e6816200010260201b60201c565b508060089081620000f891906200065f565b50505050620007a8565b6000600760009054906101000a900473ffffffffffffffffffffffffffffffffffffffff16905081600760006101000a81548173ffffffffffffffffffffffffffffffffffffffff021916908373ffffffffffffffffffffffffffffffffffffffff1602179055508173ffffffffffffffffffffffffffffffffffffffff168173ffffffffffffffffffffffffffffffffffffffff167f8be0079c531659141344cd1fd0a4f28419497f9722a3daafe3b4186f6b6457e060405160405180910390a35050565b6000604051905090565b600080fd5b600080fd5b600080fd5b600080fd5b6000601f19601f8301169050919050565b7f4e487b7100000000000000000000000000000000000000000000000000000000600052604160045260246000fd5b6200023182620001e6565b810181811067ffffffffffffffff82111715620002535762000252620001f7565b5b80604052505050565b600062000268620001c8565b905062000276828262000226565b919050565b600067ffffffffffffffff821115620002995762000298620001f7565b5b620002a482620001e6565b9050602081019050919050565b60005b83811015620002d1578082015181840152602081019050620002b4565b60008484015250505050565b6000620002f4620002ee846200027b565b6200025c565b905082815260208101848484011115620003135762000312620001e1565b5b62000320848285620002b1565b509392505050565b600082601f83011262000340576200033f620001dc565b5b815162000352848260208601620002dd565b91505092915050565b600080600060608486031215620003775762000376620001d2565b5b600084015167ffffffffffffffff811115620003985762000397620001d7565b5b620003a68682870162000328565b935050602084015167ffffffffffffffff811115620003ca57620003c9620001d7565b5b620003d88682870162000328565b925050604084015167ffffffffffffffff811115620003fc57620003fb620001d7565b5b6200040a8682870162000328565b9150509250925092565b600081519050919050565b7f4e487b7100000000000000000000000000000000000000000000000000000000600052602260045260246000fd5b600060028204905060018216806200046757607f821691505b6020821081036200047d576200047c6200041f565b5b50919050565b60008190508160005260206000209050919050565b60006020601f8301049050919050565b600082821b905092915050565b600060088302620004e77fffffffffffffffffffffffffffffffffffffffffffffffffffffffffffffffff82620004a8565b620004f38683620004a8565b95508019841693508086168417925050509392505050565b6000819050919050565b6000819050919050565b6000620005406200053a62000534846200050b565b62000515565b6200050b565b9050919050565b6000819050919050565b6200055c836200051f565b620005746200056b8262000547565b848454620004b5565b825550505050565b600090565b6200058b6200057c565b6200059881848462000551565b505050565b5b81811015620005c057620005b460008262000581565b6001810190506200059e565b5050565b601f8211156200060f57620005d98162000483565b620005e48462000498565b81016020851015620005f4578190505b6200060c620006038562000498565b8301826200059d565b50505b505050565b600082821c905092915050565b6000620006346000198460080262000614565b1980831691505092915050565b60006200064f838362000621565b9150826002028217905092915050565b6200066a8262000414565b67ffffffffffffffff811115620006865762000685620001f7565b5b6200069282546200044e565b6200069f828285620005c4565b600060209050601f831160018114620006d75760008415620006c2578287015190505b620006ce858262000641565b8655506200073e565b601f198416620006e78662000483565b60005b828110156200071157848901518255600182019150602085019450602081019050620006ea565b868310156200073157848901516200072d601f89168262000621565b8355505b6001600288020188555050505b505050505050565b600073ffffffffffffffffffffffffffffffffffffffff82169050919050565b6000620007738262000746565b9050919050565b620007858162000766565b82525050565b6000602082019050620007a260008301846200077a565b92915050565b6127a980620007b86000396000f3fe608060405234801561001057600080fd5b50600436106101215760003560e01c8063715018a6116100ad578063b88d4fde11610071578063b88d4fde146102f2578063c87b56dd1461030e578063d0def5211461033e578063e985e9c51461035a578063f2fde38b1461038a57610121565b8063715018a6146102745780638da5cb5b1461027e57806395d89b411461029c578063a22cb465146102ba578063a843c51f146102d657610121565b806323b872dd116100f457806323b872dd146101c057806342842e0e146101dc57806355f804b3146101f85780636352211e1461021457806370a082311461024457610121565b806301ffc9a71461012657806306fdde0314610156578063081812fc14610174578063095ea7b3146101a4575b600080fd5b610140600480360381019061013b9190611bb8565b6103a6565b60405161014d9190611c00565b60405180910390f35b61015e610407565b60405161016b9190611cab565b60405180910390f35b61018e60048036038101906101899190611d03565b610499565b60405161019b9190611d71565b60405180910390f35b6101be60048036038101906101b99190611db8565b6104b5565b005b6101da60048036038101906101d59190611df8565b6104cb565b005b6101f660048036038101906101f19190611df8565b6105cd565b005b610212600480360381019061020d9190611f80565b6105ed565b005b61022e60048036038101906102299190611d03565b610608565b60405161023b9190611d71565b60405180910390f35b61025e60048036038101906102599190611fc9565b61061a565b60405161026b9190612005565b60405180910390f35b61027c6106d4565b005b6102866106e8565b6040516102939190611d71565b60405180910390f35b6102a4610712565b6040516102b19190611cab565b60405180910390f35b6102d460048036038101906102cf919061204c565b6107a4565b005b6102f060048036038101906102eb9190611fc9565b6107ba565b005b61030c6004803603810190610307919061212d565b6107ce565b005b61032860048036038101906103239190611d03565b6107f3565b6040516103359190611cab565b60405180910390f35b610358600480360381019061035391906121b0565b610906565b005b610374600480360381019061036f919061220c565b610946565b6040516103819190611c00565b60405180910390f35b6103a4600480360381019061039f9190611fc9565b6109da565b005b6000634906490660e01b7bffffffffffffffffffffffffffffffffffffffffffffffffffffffff1916827bffffffffffffffffffffffffffffffffffffffffffffffffffffffff1916148061040057506103ff82610a60565b5b9050919050565b6060600080546104169061227b565b80601f01602080910402602001604051908101604052809291908181526020018280546104429061227b565b801561048f5780601f106104645761010080835404028352916020019161048f565b820191906000526020600020905b81548152906001019060200180831161047257829003601f168201915b5050505050905090565b60006104a482610b42565b506104ae82610bca565b9050919050565b6104c782826104c2610c07565b610c0f565b5050565b600073ffffffffffffffffffffffffffffffffffffffff168273ffffffffffffffffffffffffffffffffffffffff160361053d5760006040517f64a0ae920000000000000000000000000000000000000000000000000000000081526004016105349190611d71565b60405180910390fd5b6000610551838361054c610c07565b610c21565b90508373ffffffffffffffffffffffffffffffffffffffff168173ffffffffffffffffffffffffffffffffffffffff16146105c7578382826040517f64283d7b0000000000000000000000000000000000000000000000000000000081526004016105be939291906122ac565b60405180910390fd5b50505050565b6105e8838383604051806020016040528060008152506107ce565b505050565b6105f5610e3b565b8060089081610604919061248f565b5050565b600061061382610b42565b9050919050565b60008073ffffffffffffffffffffffffffffffffffffffff168273ffffffffffffffffffffffffffffffffffffffff160361068d5760006040517f89c62b640000000000000000000000000000000000000000000000000000000081526004016106849190611d71565b60405180910390fd5b600360008373ffffffffffffffffffffffffffffffffffffffff1673ffffffffffffffffffffffffffffffffffffffff168152602001908152602001600020549050919050565b6106dc610e3b565b6106e66000610ec2565b565b6000600760009054906101000a900473ffffffffffffffffffffffffffffffffffffffff16905090565b6060600180546107219061227b565b80601f016020809104026020016040519081016040528092919081815260200182805461074d9061227b565b801561079a5780601f1061076f5761010080835404028352916020019161079a565b820191906000526020600020905b81548152906001019060200180831161077d57829003601f168201915b5050505050905090565b6107b66107af610c07565b8383610f88565b5050565b6107c2610e3b565b6107cb816109da565b50565b6107d98484846104cb565b6107ed6107e4610c07565b858585856110f7565b50505050565b60606107fe82610b42565b50600060066000848152602001908152602001600020805461081f9061227b565b80601f016020809104026020016040519081016040528092919081815260200182805461084b9061227b565b80156108985780601f1061086d57610100808354040283529160200191610898565b820191906000526020600020905b81548152906001019060200180831161087b57829003601f168201915b5050505050905060006108a96112a8565b905060008151036108be578192505050610901565b6000825111156108f35780826040516020016108db92919061259d565b60405160208183030381529060405292505050610901565b6108fc8461133a565b925050505b919050565b61090e610e3b565b6000600954905060096000815480929190610928906125f0565b919050555061093783826113a3565b61094181836113c1565b505050565b6000600560008473ffffffffffffffffffffffffffffffffffffffff1673ffffffffffffffffffffffffffffffffffffffff16815260200190815260200160002060008373ffffffffffffffffffffffffffffffffffffffff1673ffffffffffffffffffffffffffffffffffffffff16815260200190815260200160002060009054906101000a900460ff16905092915050565b6109e2610e3b565b600073ffffffffffffffffffffffffffffffffffffffff168173ffffffffffffffffffffffffffffffffffffffff1603610a545760006040517f1e4fbdf7000000000000000000000000000000000000000000000000000000008152600401610a4b9190611d71565b60405180910390fd5b610a5d81610ec2565b50565b60007f80ac58cd000000000000000000000000000000000000000000000000000000007bffffffffffffffffffffffffffffffffffffffffffffffffffffffff1916827bffffffffffffffffffffffffffffffffffffffffffffffffffffffff19161480610b2b57507f5b5e139f000000000000000000000000000000000000000000000000000000007bffffffffffffffffffffffffffffffffffffffffffffffffffffffff1916827bffffffffffffffffffffffffffffffffffffffffffffffffffffffff1916145b80610b3b5750610b3a8261141d565b5b9050919050565b600080610b4e83611487565b9050600073ffffffffffffffffffffffffffffffffffffffff168173ffffffffffffffffffffffffffffffffffffffff1603610bc157826040517f7e273289000000000000000000000000000000000000000000000000000000008152600401610bb89190612005565b60405180910390fd5b80915050919050565b60006004600083815260200190815260200160002060009054906101000a900473ffffffffffffffffffffffffffffffffffffffff169050919050565b600033905090565b610c1c83838360016114c4565b505050565b600080610c2d84611487565b9050600073ffffffffffffffffffffffffffffffffffffffff168373ffffffffffffffffffffffffffffffffffffffff1614610c6f57610c6e818486611689565b5b600073ffffffffffffffffffffffffffffffffffffffff168173ffffffffffffffffffffffffffffffffffffffff1614610d0057610cb16000856000806114c4565b6001600360008373ffffffffffffffffffffffffffffffffffffffff1673ffffffffffffffffffffffffffffffffffffffff168152602001908152602001600020600082825403925050819055505b600073ffffffffffffffffffffffffffffffffffffffff168573ffffffffffffffffffffffffffffffffffffffff1614610d83576001600360008773ffffffffffffffffffffffffffffffffffffffff1673ffffffffffffffffffffffffffffffffffffffff168152602001908152602001600020600082825401925050819055505b846002600086815260200190815260200160002060006101000a81548173ffffffffffffffffffffffffffffffffffffffff021916908373ffffffffffffffffffffffffffffffffffffffff160217905550838573ffffffffffffffffffffffffffffffffffffffff168273ffffffffffffffffffffffffffffffffffffffff167fddf252ad1be2c89b69c2b068fc378daa952ba7f163c4a11628f55a4df523b3ef60405160405180910390a4809150509392505050565b610e43610c07565b73ffffffffffffffffffffffffffffffffffffffff16610e616106e8565b73ffffffffffffffffffffffffffffffffffffffff1614610ec057610e84610c07565b6040517f118cdaa7000000000000000000000000000000000000000000000000000000008152600401610eb79190611d71565b60405180910390fd5b565b6000600760009054906101000a900473ffffffffffffffffffffffffffffffffffffffff16905081600760006101000a81548173ffffffffffffffffffffffffffffffffffffffff021916908373ffffffffffffffffffffffffffffffffffffffff1602179055508173ffffffffffffffffffffffffffffffffffffffff168173ffffffffffffffffffffffffffffffffffffffff167f8be0079c531659141344cd1fd0a4f28419497f9722a3daafe3b4186f6b6457e060405160405180910390a35050565b600073ffffffffffffffffffffffffffffffffffffffff168273ffffffffffffffffffffffffffffffffffffffff1603610ff957816040517f5b08ba18000000000000000000000000000000000000000000000000000000008152600401610ff09190611d71565b60405180910390fd5b80600560008573ffffffffffffffffffffffffffffffffffffffff1673ffffffffffffffffffffffffffffffffffffffff16815260200190815260200160002060008473ffffffffffffffffffffffffffffffffffffffff1673ffffffffffffffffffffffffffffffffffffffff16815260200190815260200160002060006101000a81548160ff0219169083151502179055508173ffffffffffffffffffffffffffffffffffffffff168373ffffffffffffffffffffffffffffffffffffffff167f17307eab39ab6107e8899845ad3d59bd9653f200f220920489ca2b5937696c31836040516110ea9190611c00565b60405180910390a3505050565b60008373ffffffffffffffffffffffffffffffffffffffff163b11156112a1578273ffffffffffffffffffffffffffffffffffffffff1663150b7a02868685856040518563ffffffff1660e01b8152600401611156949392919061268d565b6020604051808303816000875af192505050801561119257506040513d601f19601f8201168201806040525081019061118f91906126ee565b60015b611216573d80600081146111c2576040519150601f19603f3d011682016040523d82523d6000602084013e6111c7565b606091505b50600081510361120e57836040517f64a0ae920000000000000000000000000000000000000000000000000000000081526004016112059190611d71565b60405180910390fd5b805181602001fd5b63150b7a0260e01b7bffffffffffffffffffffffffffffffffffffffffffffffffffffffff1916817bffffffffffffffffffffffffffffffffffffffffffffffffffffffff19161461129f57836040517f64a0ae920000000000000000000000000000000000000000000000000000000081526004016112969190611d71565b60405180910390fd5b505b5050505050565b6060600880546112b79061227b565b80601f01602080910402602001604051908101604052809291908181526020018280546112e39061227b565b80156113305780601f1061130557610100808354040283529160200191611330565b820191906000526020600020905b81548152906001019060200180831161131357829003601f168201915b5050505050905090565b606061134582610b42565b5060006113506112a8565b90506000815111611370576040518060200160405280600081525061139b565b8061137a8461174d565b60405160200161138b92919061259d565b6040516020818303038152906040525b915050919050565b6113bd82826040518060200160405280600081525061181b565b5050565b806006600084815260200190815260200160002090816113e1919061248f565b507ff8e1a15aba9398e019f0b49df1a4fde98ee17ae345cb5f6b5e2c27f5033e8ce7826040516114119190612005565b60405180910390a15050565b60007f01ffc9a7000000000000000000000000000000000000000000000000000000007bffffffffffffffffffffffffffffffffffffffffffffffffffffffff1916827bffffffffffffffffffffffffffffffffffffffffffffffffffffffff1916149050919050565b60006002600083815260200190815260200160002060009054906101000a900473ffffffffffffffffffffffffffffffffffffffff169050919050565b80806114fd5750600073ffffffffffffffffffffffffffffffffffffffff168273ffffffffffffffffffffffffffffffffffffffff1614155b1561163157600061150d84610b42565b9050600073ffffffffffffffffffffffffffffffffffffffff168373ffffffffffffffffffffffffffffffffffffffff161415801561157857508273ffffffffffffffffffffffffffffffffffffffff168173ffffffffffffffffffffffffffffffffffffffff1614155b801561158b57506115898184610946565b155b156115cd57826040517fa9fbf51f0000000000000000000000000000000000000000000000000000000081526004016115c49190611d71565b60405180910390fd5b811561162f57838573ffffffffffffffffffffffffffffffffffffffff168273ffffffffffffffffffffffffffffffffffffffff167f8c5be1e5ebec7d5bd14f71427d1e84f3dd0314c0f7b2291e5b200ac8c7c3b92560405160405180910390a45b505b836004600085815260200190815260200160002060006101000a81548173ffffffffffffffffffffffffffffffffffffffff021916908373ffffffffffffffffffffffffffffffffffffffff16021790555050505050565b61169483838361183f565b61174857600073ffffffffffffffffffffffffffffffffffffffff168373ffffffffffffffffffffffffffffffffffffffff160361170957806040517f7e2732890000000000000000000000000000000000000000000000000000000081526004016117009190612005565b60405180910390fd5b81816040517f177e802f00000000000000000000000000000000000000000000000000000000815260040161173f92919061271b565b60405180910390fd5b505050565b60606000600161175c84611900565b01905060008167ffffffffffffffff81111561177b5761177a611e55565b5b6040519080825280601f01601f1916602001820160405280156117ad5781602001600182028036833780820191505090505b509050600082602001820190505b600115611810578080600190039150507f3031323334353637383961626364656600000000000000000000000000000000600a86061a8153600a858161180457611803612744565b5b049450600085036117bb575b819350505050919050565b6118258383611a53565b61183a611830610c07565b60008585856110f7565b505050565b60008073ffffffffffffffffffffffffffffffffffffffff168373ffffffffffffffffffffffffffffffffffffffff16141580156118f757508273ffffffffffffffffffffffffffffffffffffffff168473ffffffffffffffffffffffffffffffffffffffff1614806118b857506118b78484610946565b5b806118f657508273ffffffffffffffffffffffffffffffffffffffff166118de83610bca565b73ffffffffffffffffffffffffffffffffffffffff16145b5b90509392505050565b600080600090507a184f03e93ff9f4daa797ed6e38ed64bf6a1f010000000000000000831061195e577a184f03e93ff9f4daa797ed6e38ed64bf6a1f010000000000000000838161195457611953612744565b5b0492506040810190505b6d04ee2d6d415b85acef8100000000831061199b576d04ee2d6d415b85acef8100000000838161199157611990612744565b5b0492506020810190505b662386f26fc1000083106119ca57662386f26fc1000083816119c0576119bf612744565b5b0492506010810190505b6305f5e10083106119f3576305f5e10083816119e9576119e8612744565b5b0492506008810190505b6127108310611a18576127108381611a0e57611a0d612744565b5b0492506004810190505b60648310611a3b5760648381611a3157611a30612744565b5b0492506002810190505b600a8310611a4a576001810190505b80915050919050565b600073ffffffffffffffffffffffffffffffffffffffff168273ffffffffffffffffffffffffffffffffffffffff1603611ac55760006040517f64a0ae92000000000000000000000000000000000000000000000000000000008152600401611abc9190611d71565b60405180910390fd5b6000611ad383836000610c21565b9050600073ffffffffffffffffffffffffffffffffffffffff168173ffffffffffffffffffffffffffffffffffffffff1614611b475760006040517f73c6ac6e000000000000000000000000000000000000000000000000000000008152600401611b3e9190611d71565b60405180910390fd5b505050565b6000604051905090565b600080fd5b600080fd5b60007fffffffff0000000000000000000000000000000000000000000000000000000082169050919050565b611b9581611b60565b8114611ba057600080fd5b50565b600081359050611bb281611b8c565b92915050565b600060208284031215611bce57611bcd611b56565b5b6000611bdc84828501611ba3565b91505092915050565b60008115159050919050565b611bfa81611be5565b82525050565b6000602082019050611c156000830184611bf1565b92915050565b600081519050919050565b600082825260208201905092915050565b60005b83811015611c55578082015181840152602081019050611c3a565b60008484015250505050565b6000601f19601f8301169050919050565b6000611c7d82611c1b565b611c878185611c26565b9350611c97818560208601611c37565b611ca081611c61565b840191505092915050565b60006020820190508181036000830152611cc58184611c72565b905092915050565b6000819050919050565b611ce081611ccd565b8114611ceb57600080fd5b50565b600081359050611cfd81611cd7565b92915050565b600060208284031215611d1957611d18611b56565b5b6000611d2784828501611cee565b91505092915050565b600073ffffffffffffffffffffffffffffffffffffffff82169050919050565b6000611d5b82611d30565b9050919050565b611d6b81611d50565b82525050565b6000602082019050611d866000830184611d62565b92915050565b611d9581611d50565b8114611da057600080fd5b50565b600081359050611db281611d8c565b92915050565b60008060408385031215611dcf57611dce611b56565b5b6000611ddd85828601611da3565b9250506020611dee85828601611cee565b9150509250929050565b600080600060608486031215611e1157611e10611b56565b5b6000611e1f86828701611da3565b9350506020611e3086828701611da3565b9250506040611e4186828701611cee565b9150509250925092565b600080fd5b600080fd5b7f4e487b7100000000000000000000000000000000000000000000000000000000600052604160045260246000fd5b611e8d82611c61565b810181811067ffffffffffffffff82111715611eac57611eab611e55565b5b80604052505050565b6000611ebf611b4c565b9050611ecb8282611e84565b919050565b600067ffffffffffffffff821115611eeb57611eea611e55565b5b611ef482611c61565b9050602081019050919050565b82818337600083830152505050565b6000611f23611f1e84611ed0565b611eb5565b905082815260208101848484011115611f3f57611f3e611e50565b5b611f4a848285611f01565b509392505050565b600082601f830112611f6757611f66611e4b565b5b8135611f77848260208601611f10565b91505092915050565b600060208284031215611f9657611f95611b56565b5b600082013567ffffffffffffffff811115611fb457611fb3611b5b565b5b611fc084828501611f52565b91505092915050565b600060208284031215611fdf57611fde611b56565b5b6000611fed84828501611da3565b91505092915050565b611fff81611ccd565b82525050565b600060208201905061201a6000830184611ff6565b92915050565b61202981611be5565b811461203457600080fd5b50565b60008135905061204681612020565b92915050565b6000806040838503121561206357612062611b56565b5b600061207185828601611da3565b925050602061208285828601612037565b9150509250929050565b600067ffffffffffffffff8211156120a7576120a6611e55565b5b6120b082611c61565b9050602081019050919050565b60006120d06120cb8461208c565b611eb5565b9050828152602081018484840111156120ec576120eb611e50565b5b6120f7848285611f01565b509392505050565b600082601f83011261211457612113611e4b565b5b81356121248482602086016120bd565b91505092915050565b6000806000806080858703121561214757612146611b56565b5b600061215587828801611da3565b945050602061216687828801611da3565b935050604061217787828801611cee565b925050606085013567ffffffffffffffff81111561219857612197611b5b565b5b6121a4878288016120ff565b91505092959194509250565b600080604083850312156121c7576121c6611b56565b5b60006121d585828601611da3565b925050602083013567ffffffffffffffff8111156121f6576121f5611b5b565b5b61220285828601611f52565b9150509250929050565b6000806040838503121561222357612222611b56565b5b600061223185828601611da3565b925050602061224285828601611da3565b9150509250929050565b7f4e487b7100000000000000000000000000000000000000000000000000000000600052602260045260246000fd5b6000600282049050600182168061229357607f821691505b6020821081036122a6576122a561224c565b5b50919050565b60006060820190506122c16000830186611d62565b6122ce6020830185611ff6565b6122db6040830184611d62565b949350505050565b60008190508160005260206000209050919050565b60006020601f8301049050919050565b600082821b905092915050565b6000600883026123457fffffffffffffffffffffffffffffffffffffffffffffffffffffffffffffffff82612308565b61234f8683612308565b95508019841693508086168417925050509392505050565b6000819050919050565b600061238c61238761238284611ccd565b612367565b611ccd565b9050919050565b6000819050919050565b6123a683612371565b6123ba6123b282612393565b848454612315565b825550505050565b600090565b6123cf6123c2565b6123da81848461239d565b505050565b5b818110156123fe576123f36000826123c7565b6001810190506123e0565b5050565b601f82111561244357612414816122e3565b61241d846122f8565b8101602085101561242c578190505b612440612438856122f8565b8301826123df565b50505b505050565b600082821c905092915050565b600061246660001984600802612448565b1980831691505092915050565b600061247f8383612455565b9150826002028217905092915050565b61249882611c1b565b67ffffffffffffffff8111156124b1576124b0611e55565b5b6124bb825461227b565b6124c6828285612402565b600060209050601f8311600181146124f957600084156124e7578287015190505b6124f18582612473565b865550612559565b601f198416612507866122e3565b60005b8281101561252f5784890151825560018201915060208501945060208101905061250a565b8683101561254c5784890151612548601f891682612455565b8355505b6001600288020188555050505b505050505050565b600081905092915050565b600061257782611c1b565b6125818185612561565b9350612591818560208601611c37565b80840191505092915050565b60006125a9828561256c565b91506125b5828461256c565b91508190509392505050565b7f4e487b7100000000000000000000000000000000000000000000000000000000600052601160045260246000fd5b60006125fb82611ccd565b91507fffffffffffffffffffffffffffffffffffffffffffffffffffffffffffffffff820361262d5761262c6125c1565b5b600182019050919050565b600081519050919050565b600082825260208201905092915050565b600061265f82612638565b6126698185612643565b9350612679818560208601611c37565b61268281611c61565b840191505092915050565b60006080820190506126a26000830187611d62565b6126af6020830186611d62565b6126bc6040830185611ff6565b81810360608301526126ce8184612654565b905095945050505050565b6000815190506126e881611b8c565b92915050565b60006020828403121561270457612703611b56565b5b6000612712848285016126d9565b91505092915050565b60006040820190506127306000830185611d62565b61273d6020830184611ff6565b9392505050565b7f4e487b7100000000000000000000000000000000000000000000000000000000600052601260045260246000fdfea2646970667358221220ed4c19d0880be8fc2ca56ddcb0a2529241c7da2fead48dbc9ab0b3c53e19aa8c64736f6c63430008140033",
  "linkReferences": {},
  "deployedLinkReferences": {}
}