{
  "_format": "hh-sol-artifact-1",
  "contractName": "GameLogic",
  "sourceName": "contracts/GameLogic.sol",
  "abi": [
    {
      "inputs": [
        {
          "internalType": "address",
          "name": "_goldTokenAddress",
          "type": "address"
        },
        {
          "internalType": "address",
          "name": "_gameAssetNFTAddress",
          "type": "address"
        }
      ],
      "stateMutability": "nonpayable",
      "type": "constructor"
    },
    {
      "inputs": [
        {
          "internalType": "address",
          "name": "owner",
          "type": "address"
        }
      ],
      "name": "OwnableInvalidOwner",
      "type": "error"
    },
    {
      "inputs": [
        {
          "internalType": "address",
          "name": "account",
          "type": "address"
        }
      ],
      "name": "OwnableUnauthorizedAccount",
      "type": "error"
    },
    {
      "anonymous": false,
      "inputs": [
        {
          "indexed": true,
          "internalType": "address",
          "name": "previousOwner",
          "type": "address"
        },
        {
          "indexed": true,
          "internalType": "address",
          "name": "newOwner",
          "type": "address"
        }
      ],
      "name": "OwnershipTransferred",
      "type": "event"
    },
    {
      "inputs": [],
      "name": "ENERGY_PER_MINE",
      "outputs": [
        {
          "internalType": "uint256",
          "name": "",
          "type": "uint256"
        }
      ],
      "stateMutability": "view",
      "type": "function"
    },
    {
      "inputs": [],
      "name": "ENERGY_REGEN_RATE_PER_MINUTE",
      "outputs": [
        {
          "internalType": "uint256",
          "name": "",
          "type": "uint256"
        }
      ],
      "stateMutability": "view",
      "type": "function"
    },
    {
      "inputs": [],
      "name": "MAX_ENERGY",
      "outputs": [
        {
          "internalType": "uint256",
          "name": "",
          "type": "uint256"
        }
      ],
      "stateMutability": "view",
      "type": "function"
    },
    {
      "inputs": [],
      "name": "gameAssetNFT",
      "outputs": [
        {
          "internalType": "contract GameAssetNFT",
          "name": "",
          "type": "address"
        }
      ],
      "stateMutability": "view",
      "type": "function"
    },
    {
      "inputs": [
        {
          "internalType": "address",
          "name": "player",
          "type": "address"
        }
      ],
      "name": "getPlayerEnergy",
      "outputs": [
        {
          "internalType": "uint256",
          "name": "",
          "type": "uint256"
        }
      ],
      "stateMutability": "view",
      "type": "function"
    },
    {
      "inputs": [],
      "name": "goldToken",
      "outputs": [
        {
          "internalType": "contract GoldToken",
          "name": "",
          "type": "address"
        }
      ],
      "stateMutability": "view",
      "type": "function"
    },
    {
      "inputs": [
        {
          "internalType": "address",
          "name": "player",
          "type": "address"
        }
      ],
      "name": "initializePlayerEnergy",
      "outputs": [],
      "stateMutability": "nonpayable",
      "type": "function"
    },
    {
      "inputs": [
        {
          "internalType": "address",
          "name": "",
          "type": "address"
        }
      ],
      "name": "lastEnergyUpdateTime",
      "outputs": [
        {
          "internalType": "uint256",
          "name": "",
          "type": "uint256"
        }
      ],
      "stateMutability": "view",
      "type": "function"
    },
    {
      "inputs": [],
      "name": "mine",
      "outputs": [],
      "stateMutability": "nonpayable",
      "type": "function"
    },
    {
      "inputs": [],
      "name": "miningRewardAmount",
      "outputs": [
        {
          "internalType": "uint256",
          "name": "",
          "type": "uint256"
        }
      ],
      "stateMutability": "view",
      "type": "function"
    },
    {
      "inputs": [],
      "name": "nftDropProbability",
      "outputs": [
        {
          "internalType": "uint256",
          "name": "",
          "type": "uint256"
        }
      ],
      "stateMutability": "view",
      "type": "function"
    },
    {
      "inputs": [],
      "name": "owner",
      "outputs": [
        {
          "internalType": "address",
          "name": "",
          "type": "address"
        }
      ],
      "stateMutability": "view",
      "type": "function"
    },
    {
      "inputs": [
        {
          "internalType": "address",
          "name": "",
          "type": "address"
        }
      ],
      "name": "playerEnergy",
      "outputs": [
        {
          "internalType": "uint256",
          "name": "",
          "type": "uint256"
        }
      ],
      "stateMutability": "view",
      "type": "function"
    },
    {
      "inputs": [],
      "name": "renounceOwnership",
      "outputs": [],
      "stateMutability": "nonpayable",
      "type": "function"
    },
    {
      "inputs": [
        {
          "internalType": "string[]",
          "name": "_uris",
          "type": "string[]"
        }
      ],
      "name": "setArtifactUris",
      "outputs": [],
      "stateMutability": "nonpayable",
      "type": "function"
    },
    {
      "inputs": [
        {
          "internalType": "uint256",
          "name": "_amount",
          "type": "uint256"
        }
      ],
      "name": "setMiningRewardAmount",
      "outputs": [],
      "stateMutability": "nonpayable",
      "type": "function"
    },
    {
      "inputs": [
        {
          "internalType": "uint256",
          "name": "_probability",
          "type": "uint256"
        }
      ],
      "name": "setNftDropProbability",
      "outputs": [],
      "stateMutability": "nonpayable",
      "type": "function"
    },
    {
      "inputs": [
        {
          "internalType": "address",
          "name": "newOwner",
          "type": "address"
        }
      ],
      "name": "transferOwnership",
      "outputs": [],
      "stateMutability": "nonpayable",
      "type": "function"
    }
  ],
  "bytecode": "0x608060405267016345785d8a0000600355606460045560405180606001604052806040518060600160405280603e8152602001620021eb603e913981526020016040518060600160405280603f815260200162002229603f91398152602001604051806060016040528060288152602001620022686028913981525060079060036200008d929190620003b9565b503480156200009b57600080fd5b5060405162002290380380620022908339818101604052810190620000c1919062000510565b33600073ffffffffffffffffffffffffffffffffffffffff168173ffffffffffffffffffffffffffffffffffffffff1603620001375760006040517f1e4fbdf70000000000000000000000000000000000000000000000000000000081526004016200012e919062000568565b60405180910390fd5b6200014881620002f560201b60201c565b5081600160006101000a81548173ffffffffffffffffffffffffffffffffffffffff021916908373ffffffffffffffffffffffffffffffffffffffff16021790555080600260006101000a81548173ffffffffffffffffffffffffffffffffffffffff021916908373ffffffffffffffffffffffffffffffffffffffff160217905550600160009054906101000a900473ffffffffffffffffffffffffffffffffffffffff1673ffffffffffffffffffffffffffffffffffffffff1663f2fde38b306040518263ffffffff1660e01b815260040162000228919062000568565b600060405180830381600087803b1580156200024357600080fd5b505af115801562000258573d6000803e3d6000fd5b50505050600260009054906101000a900473ffffffffffffffffffffffffffffffffffffffff1673ffffffffffffffffffffffffffffffffffffffff1663a843c51f306040518263ffffffff1660e01b8152600401620002b9919062000568565b600060405180830381600087803b158015620002d457600080fd5b505af1158015620002e9573d6000803e3d6000fd5b505050505050620008e6565b60008060009054906101000a900473ffffffffffffffffffffffffffffffffffffffff169050816000806101000a81548173ffffffffffffffffffffffffffffffffffffffff021916908373ffffffffffffffffffffffffffffffffffffffff1602179055508173ffffffffffffffffffffffffffffffffffffffff168173ffffffffffffffffffffffffffffffffffffffff167f8be0079c531659141344cd1fd0a4f28419497f9722a3daafe3b4186f6b6457e060405160405180910390a35050565b82805482825590600052602060002090810192821562000406579160200282015b8281111562000405578251829081620003f49190620007ff565b5091602001919060010190620003da565b5b50905062000415919062000419565b5090565b5b808211156200043d576000818162000433919062000441565b506001016200041a565b5090565b5080546200044f90620005ee565b6000825580601f1062000463575062000484565b601f01602090049060005260206000209081019062000483919062000487565b5b50565b5b80821115620004a257600081600090555060010162000488565b5090565b600080fd5b600073ffffffffffffffffffffffffffffffffffffffff82169050919050565b6000620004d882620004ab565b9050919050565b620004ea81620004cb565b8114620004f657600080fd5b50565b6000815190506200050a81620004df565b92915050565b600080604083850312156200052a5762000529620004a6565b5b60006200053a85828601620004f9565b92505060206200054d85828601620004f9565b9150509250929050565b6200056281620004cb565b82525050565b60006020820190506200057f600083018462000557565b92915050565b600081519050919050565b7f4e487b7100000000000000000000000000000000000000000000000000000000600052604160045260246000fd5b7f4e487b7100000000000000000000000000000000000000000000000000000000600052602260045260246000fd5b600060028204905060018216806200060757607f821691505b6020821081036200061d576200061c620005bf565b5b50919050565b60008190508160005260206000209050919050565b60006020601f8301049050919050565b600082821b905092915050565b600060088302620006877fffffffffffffffffffffffffffffffffffffffffffffffffffffffffffffffff8262000648565b62000693868362000648565b95508019841693508086168417925050509392505050565b6000819050919050565b6000819050919050565b6000620006e0620006da620006d484620006ab565b620006b5565b620006ab565b9050919050565b6000819050919050565b620006fc83620006bf565b620007146200070b82620006e7565b84845462000655565b825550505050565b600090565b6200072b6200071c565b62000738818484620006f1565b505050565b5b8181101562000760576200075460008262000721565b6001810190506200073e565b5050565b601f821115620007af57620007798162000623565b620007848462000638565b8101602085101562000794578190505b620007ac620007a38562000638565b8301826200073d565b50505b505050565b600082821c905092915050565b6000620007d460001984600802620007b4565b1980831691505092915050565b6000620007ef8383620007c1565b9150826002028217905092915050565b6200080a8262000585565b67ffffffffffffffff81111562000826576200082562000590565b5b620008328254620005ee565b6200083f82828562000764565b600060209050601f83116001811462000877576000841562000862578287015190505b6200086e8582620007e1565b865550620008de565b601f198416620008878662000623565b60005b82811015620008b1578489015182556001820191506020850194506020810190506200088a565b86831015620008d15784890151620008cd601f891682620007c1565b8355505b6001600288020188555050505b505050505050565b6118f580620008f66000396000f3fe608060405234801561001057600080fd5b50600436106101165760003560e01c80638da5cb5b116100a25780639f393a67116100715780639f393a67146102ab578063b94db334146102c9578063e410261d146102e5578063f2fde38b14610301578063fb30fa7f1461031d57610116565b80638da5cb5b1461024757806394002b571461026557806399f4b251146102835780639d6007521461028d57610116565b80633de3ebf8116100e95780633de3ebf8146101a35780636f354be6146101d3578063715018a614610203578063838be6c51461020d5780638495ef011461022b57610116565b806315ecd3dd1461011b5780631fdebc441461013757806323226aa0146101555780632f8a261d14610173575b600080fd5b61013560048036038101906101309190610d7e565b61033b565b005b61013f61034d565b60405161014c9190610dba565b60405180910390f35b61015d610352565b60405161016a9190610dba565b60405180910390f35b61018d60048036038101906101889190610e33565b610357565b60405161019a9190610dba565b60405180910390f35b6101bd60048036038101906101b89190610e33565b61036f565b6040516101ca9190610dba565b60405180910390f35b6101ed60048036038101906101e89190610e33565b61043a565b6040516101fa9190610dba565b60405180910390f35b61020b610452565b005b610215610466565b6040516102229190610ebf565b60405180910390f35b61024560048036038101906102409190611106565b61048c565b005b61024f6104ae565b60405161025c919061115e565b60405180910390f35b61026d6104d7565b60405161027a919061119a565b60405180910390f35b61028b6104fd565b005b6102956107f1565b6040516102a29190610dba565b60405180910390f35b6102b36107f7565b6040516102c09190610dba565b60405180910390f35b6102e360048036038101906102de9190610d7e565b6107fc565b005b6102ff60048036038101906102fa9190610e33565b610853565b005b61031b60048036038101906103169190610e33565b6108e7565b005b61032561096d565b6040516103329190610dba565b60405180910390f35b610343610973565b8060038190555050565b606481565b600a81565b60066020528060005260406000206000915090505481565b600080600660008473ffffffffffffffffffffffffffffffffffffffff1673ffffffffffffffffffffffffffffffffffffffff16815260200190815260200160002054426103bd91906111e4565b905060006001603c836103d09190611247565b6103da9190611278565b905061043181600560008773ffffffffffffffffffffffffffffffffffffffff1673ffffffffffffffffffffffffffffffffffffffff1681526020019081526020016000205461042a91906112ba565b60646109fa565b92505050919050565b60056020528060005260406000206000915090505481565b61045a610973565b6104646000610a11565b565b600260009054906101000a900473ffffffffffffffffffffffffffffffffffffffff1681565b610494610973565b80600790805190602001906104aa929190610c5a565b5050565b60008060009054906101000a900473ffffffffffffffffffffffffffffffffffffffff16905090565b600160009054906101000a900473ffffffffffffffffffffffffffffffffffffffff1681565b61050633610ad5565b600a600560003373ffffffffffffffffffffffffffffffffffffffff1673ffffffffffffffffffffffffffffffffffffffff168152602001908152602001600020541015610589576040517f08c379a00000000000000000000000000000000000000000000000000000000081526004016105809061134b565b60405180910390fd5b600a600560003373ffffffffffffffffffffffffffffffffffffffff1673ffffffffffffffffffffffffffffffffffffffff16815260200190815260200160002060008282546105d991906111e4565b9250508190555042600660003373ffffffffffffffffffffffffffffffffffffffff1673ffffffffffffffffffffffffffffffffffffffff16815260200190815260200160002081905550600160009054906101000a900473ffffffffffffffffffffffffffffffffffffffff1673ffffffffffffffffffffffffffffffffffffffff166340c10f19336003546040518363ffffffff1660e01b815260040161068392919061136b565b600060405180830381600087803b15801561069d57600080fd5b505af11580156106b1573d6000803e3d6000fd5b5050505060006127104233446040516020016106cf939291906113fd565b6040516020818303038152906040528051906020012060001c6106f2919061143a565b90506004548110156107ee57600060078054905042334360405160200161071b939291906113fd565b6040516020818303038152906040528051906020012060001c61073e919061143a565b9050600260009054906101000a900473ffffffffffffffffffffffffffffffffffffffff1673ffffffffffffffffffffffffffffffffffffffff1663d0def52133600784815481106107935761079261146b565b5b906000526020600020016040518363ffffffff1660e01b81526004016107ba929190611593565b600060405180830381600087803b1580156107d457600080fd5b505af11580156107e8573d6000803e3d6000fd5b50505050505b50565b60035481565b600181565b610804610973565b612710811115610849576040517f08c379a000000000000000000000000000000000000000000000000000000000815260040161084090611635565b60405180910390fd5b8060048190555050565b61085b610973565b6064600560008373ffffffffffffffffffffffffffffffffffffffff1673ffffffffffffffffffffffffffffffffffffffff1681526020019081526020016000208190555042600660008373ffffffffffffffffffffffffffffffffffffffff1673ffffffffffffffffffffffffffffffffffffffff1681526020019081526020016000208190555050565b6108ef610973565b600073ffffffffffffffffffffffffffffffffffffffff168173ffffffffffffffffffffffffffffffffffffffff16036109615760006040517f1e4fbdf7000000000000000000000000000000000000000000000000000000008152600401610958919061115e565b60405180910390fd5b61096a81610a11565b50565b60045481565b61097b610c2c565b73ffffffffffffffffffffffffffffffffffffffff166109996104ae565b73ffffffffffffffffffffffffffffffffffffffff16146109f8576109bc610c2c565b6040517f118cdaa70000000000000000000000000000000000000000000000000000000081526004016109ef919061115e565b60405180910390fd5b565b6000610a098284108484610c34565b905092915050565b60008060009054906101000a900473ffffffffffffffffffffffffffffffffffffffff169050816000806101000a81548173ffffffffffffffffffffffffffffffffffffffff021916908373ffffffffffffffffffffffffffffffffffffffff1602179055508173ffffffffffffffffffffffffffffffffffffffff168173ffffffffffffffffffffffffffffffffffffffff167f8be0079c531659141344cd1fd0a4f28419497f9722a3daafe3b4186f6b6457e060405160405180910390a35050565b6000600660008373ffffffffffffffffffffffffffffffffffffffff1673ffffffffffffffffffffffffffffffffffffffff1681526020019081526020016000205442610b2291906111e4565b90506000811115610c285760006001603c83610b3e9190611247565b610b489190611278565b9050610b9f81600560008673ffffffffffffffffffffffffffffffffffffffff1673ffffffffffffffffffffffffffffffffffffffff16815260200190815260200160002054610b9891906112ba565b60646109fa565b600560008573ffffffffffffffffffffffffffffffffffffffff1673ffffffffffffffffffffffffffffffffffffffff1681526020019081526020016000208190555042600660008573ffffffffffffffffffffffffffffffffffffffff1673ffffffffffffffffffffffffffffffffffffffff16815260200190815260200160002081905550505b5050565b600033905090565b6000610c3f84610c4e565b82841802821890509392505050565b60008115159050919050565b828054828255906000526020600020908101928215610ca2579160200282015b82811115610ca1578251829081610c9191906117ed565b5091602001919060010190610c7a565b5b509050610caf9190610cb3565b5090565b5b80821115610cd35760008181610cca9190610cd7565b50600101610cb4565b5090565b508054610ce3906114c9565b6000825580601f10610cf55750610d14565b601f016020900490600052602060002090810190610d139190610d17565b5b50565b5b80821115610d30576000816000905550600101610d18565b5090565b6000604051905090565b600080fd5b600080fd5b6000819050919050565b610d5b81610d48565b8114610d6657600080fd5b50565b600081359050610d7881610d52565b92915050565b600060208284031215610d9457610d93610d3e565b5b6000610da284828501610d69565b91505092915050565b610db481610d48565b82525050565b6000602082019050610dcf6000830184610dab565b92915050565b600073ffffffffffffffffffffffffffffffffffffffff82169050919050565b6000610e0082610dd5565b9050919050565b610e1081610df5565b8114610e1b57600080fd5b50565b600081359050610e2d81610e07565b92915050565b600060208284031215610e4957610e48610d3e565b5b6000610e5784828501610e1e565b91505092915050565b6000819050919050565b6000610e85610e80610e7b84610dd5565b610e60565b610dd5565b9050919050565b6000610e9782610e6a565b9050919050565b6000610ea982610e8c565b9050919050565b610eb981610e9e565b82525050565b6000602082019050610ed46000830184610eb0565b92915050565b600080fd5b6000601f19601f8301169050919050565b7f4e487b7100000000000000000000000000000000000000000000000000000000600052604160045260246000fd5b610f2882610edf565b810181811067ffffffffffffffff82111715610f4757610f46610ef0565b5b80604052505050565b6000610f5a610d34565b9050610f668282610f1f565b919050565b600067ffffffffffffffff821115610f8657610f85610ef0565b5b602082029050602081019050919050565b600080fd5b600080fd5b600067ffffffffffffffff821115610fbc57610fbb610ef0565b5b610fc582610edf565b9050602081019050919050565b82818337600083830152505050565b6000610ff4610fef84610fa1565b610f50565b9050828152602081018484840111156110105761100f610f9c565b5b61101b848285610fd2565b509392505050565b600082601f83011261103857611037610eda565b5b8135611048848260208601610fe1565b91505092915050565b600061106461105f84610f6b565b610f50565b9050808382526020820190506020840283018581111561108757611086610f97565b5b835b818110156110ce57803567ffffffffffffffff8111156110ac576110ab610eda565b5b8086016110b98982611023565b85526020850194505050602081019050611089565b5050509392505050565b600082601f8301126110ed576110ec610eda565b5b81356110fd848260208601611051565b91505092915050565b60006020828403121561111c5761111b610d3e565b5b600082013567ffffffffffffffff81111561113a57611139610d43565b5b611146848285016110d8565b91505092915050565b61115881610df5565b82525050565b6000602082019050611173600083018461114f565b92915050565b600061118482610e8c565b9050919050565b61119481611179565b82525050565b60006020820190506111af600083018461118b565b92915050565b7f4e487b7100000000000000000000000000000000000000000000000000000000600052601160045260246000fd5b60006111ef82610d48565b91506111fa83610d48565b9250828203905081811115611212576112116111b5565b5b92915050565b7f4e487b7100000000000000000000000000000000000000000000000000000000600052601260045260246000fd5b600061125282610d48565b915061125d83610d48565b92508261126d5761126c611218565b5b828204905092915050565b600061128382610d48565b915061128e83610d48565b925082820261129c81610d48565b915082820484148315176112b3576112b26111b5565b5b5092915050565b60006112c582610d48565b91506112d083610d48565b92508282019050808211156112e8576112e76111b5565b5b92915050565b600082825260208201905092915050565b7f4e6f7420656e6f75676820656e6572677920746f206d696e652e000000000000600082015250565b6000611335601a836112ee565b9150611340826112ff565b602082019050919050565b6000602082019050818103600083015261136481611328565b9050919050565b6000604082019050611380600083018561114f565b61138d6020830184610dab565b9392505050565b6000819050919050565b6113af6113aa82610d48565b611394565b82525050565b60008160601b9050919050565b60006113cd826113b5565b9050919050565b60006113df826113c2565b9050919050565b6113f76113f282610df5565b6113d4565b82525050565b6000611409828661139e565b60208201915061141982856113e6565b601482019150611429828461139e565b602082019150819050949350505050565b600061144582610d48565b915061145083610d48565b9250826114605761145f611218565b5b828206905092915050565b7f4e487b7100000000000000000000000000000000000000000000000000000000600052603260045260246000fd5b7f4e487b7100000000000000000000000000000000000000000000000000000000600052602260045260246000fd5b600060028204905060018216806114e157607f821691505b6020821081036114f4576114f361149a565b5b50919050565b60008190508160005260206000209050919050565b6000815461151c816114c9565b61152681866112ee565b9450600182166000811461154157600181146115575761158a565b60ff19831686528115156020028601935061158a565b611560856114fa565b60005b8381101561158257815481890152600182019150602081019050611563565b808801955050505b50505092915050565b60006040820190506115a8600083018561114f565b81810360208301526115ba818461150f565b90509392505050565b7f50726f626162696c6974792063616e6e6f74206578636565642031303030302060008201527f2831303025290000000000000000000000000000000000000000000000000000602082015250565b600061161f6026836112ee565b915061162a826115c3565b604082019050919050565b6000602082019050818103600083015261164e81611612565b9050919050565b600081519050919050565b60006020601f8301049050919050565b600082821b905092915050565b6000600883026116ad7fffffffffffffffffffffffffffffffffffffffffffffffffffffffffffffffff82611670565b6116b78683611670565b95508019841693508086168417925050509392505050565b60006116ea6116e56116e084610d48565b610e60565b610d48565b9050919050565b6000819050919050565b611704836116cf565b611718611710826116f1565b84845461167d565b825550505050565b600090565b61172d611720565b6117388184846116fb565b505050565b5b8181101561175c57611751600082611725565b60018101905061173e565b5050565b601f8211156117a157611772816114fa565b61177b84611660565b8101602085101561178a578190505b61179e61179685611660565b83018261173d565b50505b505050565b600082821c905092915050565b60006117c4600019846008026117a6565b1980831691505092915050565b60006117dd83836117b3565b9150826002028217905092915050565b6117f682611655565b67ffffffffffffffff81111561180f5761180e610ef0565b5b61181982546114c9565b611824828285611760565b600060209050601f8311600181146118575760008415611845578287015190505b61184f85826117d1565b8655506118b7565b601f198416611865866114fa565b60005b8281101561188d57848901518255600182019150602085019450602081019050611868565b868310156118aa57848901516118a6601f8916826117b3565b8355505b6001600288020188555050505b50505050505056fea2646970667358221220719a4aec141c2c181e5271116da42e187a302cea2215757e686f680439da2c4364736f6c63430008140033697066733a2f2f516d5967336d394b3270384c37513158344a355a3648335932583156305539533841374236433544344533465f41525449464143545f31697066733a2f2f516d62526a4b364d3274573847375838433546345a3948335932583156305539533841374236433544344533465f41525449464143545f32697066733a2f2f516d4558414d504c455f41525449464143545f4d455441444154415f5552495f33",
  "linkReferences": {},
  "deployedLinkReferences": {}
}